:0300000002127E6B
:0C127E00787FE4F6D8FD7581A20212C54D
:101025004D454E5500504E3533322020202020208E
:1010350020202000426C7565546F6F746820202055
:10104500202000454550524F4D20202020202020B3
:101055002000504E35333200526561642020202037
:101065002020202020200057726974652020202030
:101075002020202020004361726420202020202091
:101085002020202000503250202020202020202009
:1010950020202000426C7565546F6F74680054728F
:1010A500616E7366657220446174612000504E352F
:1010B5003332202D20526561640052656164696E8A
:1010C500672E2E2E004D454E552020202020202015
:1010D50020205550004241434B2020202020202035
:1010E500444F574E002020005341564520202020D4
:1010F5002020202020202020004241434B2020207A
:1011050020202020202020202000504E3533322062
:101115002D2057726974650057726974696E672E60
:101125002E2E00504E353332202D2043617264003F
:1011350053696D756C6174696E672E2E2E00504E65
:10114500353332202D2050325000436F6E6E65636B
:1011550074696E672E2E2E00426C7565546F6F7420
:1011650068202D205444005472616E736665727256
:10117500696E672E2E2E00454550524F4D00344561
:101185004441394330340038373635343332310051
:101195003332333031303536323500333233303156
:1011A5003035363236003030303030303030303057
:1011B500000000000000000000000000000000002A
:1011C500000000000000000000000000000000001A
:0311D50000000017
:031A490081000019
:0C1A0F00C2A77FF47E01121967D2A72243
:1019850043878075985053890F438920758BFA7565
:0B1995008DFAC2ABD28ED2AFD2AC22D2
:0816EC0008F27B007A00798FFF
:0A16F4007859EBF208EAF208E9F277
:1016FE00E4FF785CE2FB08E2FA08E2F98F82758378
:10170E0000120CB0FE7859E2FB08E2FA08E2F98FFB
:10171E0082758300120CB06E6002C3220FEFB40804
:02172E00D1D315
:011730002296
:03002300021811AF
:10181100C0E0C0D075D000C000C007C2AF781208C8
:10182100E2FF2401F218E23400F274142FF8E59972
:0E183100F2C298D2AFD007D000D0D0D0E032B3
:1006260078487C007D007BFF7A1179B67E007F0ECC
:10063600120C8AE47879F67800E224FC24FA500257
:1006460080111219C7EF600B7800E208F2E418F285
:1006560012193F7800E2B40A004003020A6E9006BF
:100666006BF82828730206890206CA02071A0209CD
:10067600CE02073D02095F02097B0209970209B310
:10068600020A21785074FFF2087410F2087425F2F9
:1006960078087C007D007BFF7A10792A120DDD78C0
:1006A600187C007D007BFF7A107939120DDD7828E1
:1006B6007C007D007BFF7A107948120DDD78787614
:1006C60003020A1B785074FFF2087410F20874577C
:1006D600F278087C007D007BFF7A10795D120DDDD3
:1006E60078187C007D007BFF7A10796C120DDD781E
:1006F600287C007D007BFF7A10797B120DDD78382F
:100706007C007D007BFF7A10798A120DDD78787681
:1007160004020A1B785074FFF2087410F2087499E8
:10072600F278087C007D007BFF7A1079A3120DDD3C
:1007360078787601020A1B785074FFF2087410F27A
:100746000874B2F27878760378587401F2E4781275
:10075600F208F21217AC78087C007D007BFF7A1055
:1007660079BF120DDD78187C007D007BFF7A107949
:10077600CA120DDD78287C007D007BFF7A1079DABD
:10078600120DDD785CE4F2087400F2087408F27861
:1007960078E6FF785FE4F208EFF27879E6FF7861B1
:1007A600E4F208EFF27858E27863F27850E2FB0858
:1007B600E2FA08E2F9120E3FD37813E2940F18E238
:1007C600940040F4E4F208F2121A0F121731785C22
:1007D60074FEF2087400F2087402F208E4F2087477
:1007E60008F27B007A007948121476788F7C007DB7
:1007F600007B007A007948120DDD785C74FFF20800
:100806007410F20874EAF27B007A00794812140A2E
:1008160078087C007D00120DDD78187C007D007B59
:10082600FF7A1079ED120DDD78287C007D007BFFC4
:100836007A1079FE120DDD785CE4F2087400F20895
:100846007408F27878E6FF785FE4F208EFF27879D8
:10085600E6FF7861E4F208EFF27858E27863F2781E
:1008660050E2FB08E2FA08E2F9120E3F1219C7EF4E
:10087600700302090E785C74FFF2087411F2748337
:100886001216EC500E78987C007D007BFF7A117969
:10089600958022785C74FFF2087411F2748C12163B
:1008A600EC78987C007D007BFF50067A1179A08059
:1008B600047A1179AB120DDD7FFF121774788EA6BC
:1008C600077F327E0012196778597C007DFE7B0017
:1008D6007A00798F7E007F14120C8A788EE6786D06
:1008E600F212154A788EE6FFB402047F008003EF09
:1008F60004FF788EA6077F327E00121967788EE68F
:10090600FD7FFF12191680091219D9EF700302082C
:1009160072E47800F2785074FFF2087410F20874EA
:1009260025F278087C007D007BFF7A10792A120D6B
:10093600DD78187C007D007BFF7A107939120DDD99
:1009460078287C007D007BFF7A107948120DDDE463
:100956007858F212193F020A6E785074FFF2087442
:1009660011F208740FF278087C007D007BFF7A1183
:10097600791D020A44785074FFF2087411F2087463
:1009860028F278087C007D007BFF7A117935020A0F
:1009960044785074FFF2087411F2087443F2780830
:1009A6007C007D007BFF7A11794F020A44785074EF
:1009B600FFF2087411F208745DF278087C007D007D
:1009C6007BFF7A11796C8076785074FFF208741187
:1009D600F208747CF27B007A0079571214E1E4780D
:1009E60056F67856E6FFC394035024EF75F00BA431
:1009F6002457F9E4FAFBC001E675F010A42408F9BF
:100A0600E4A801FCFDD001120DDD78560680D378EE
:100A160056E67878F6E47858F2804D7850E2FB088E
:100A2600E2FA08E2F8AC02AD037B007A00797A12AA
:100A36000DDD78087C007D007B007A007983120D3D
:100A4600DD78187C007D007BFF7A1079CA120DDDF7
:100A560078287C007D007BFF7A1079DA120DDD782C
:100A660078760378587401F27800E224FC50030289
:100A76000B841219EBEF600E7879E6FFD3940040F1
:100A860005EF14FF80047879E6FF7879A607121936
:100A9600FDEF60117878E614FF08E6FEC39F500567
:100AA600EE04FF80047879E6FF7879EFF6785CE467
:100AB600F2087400F2087408F27878E6FD785FE4CC
:100AC600F208EDF208E4F208EFF27858E27863F201
:100AD6007850E2FB08E2FA08E2F9120E3F1219D941
:100AE600EF60077801E218020B801219C7EF6082E7
:100AF6007800E2146023146039146046240360030E
:100B0600020BB978537401F20804F20804F27879FA
:100B1600E62453F8E27800806178537404F20804FE
:100B2600F20804F20804F27879E62453F8E2780031
:100B3600804878537408F27879E62453F8E278000E
:100B460080387879E675F00BA42457F9E4FAFBC0EF
:100B560001087C00FDD001120DDD7879E6FF7B00EF
:100B66007A00798F12130A78837C007D007B007AE5
:100B7600007998120DDD78007409F202193F785C4D
:100B8600E4F2087400F2087408F27878E6FF785FF9
:100B9600E4F208EFF27879E6FF7861E4F208EFF222
:100BA6007858E27863F27850E2FB08E2FA08E2F954
:030BB600120E3FDD
:010BB9002219
:10164F00783C7C007DFE7BFF7A1179C47E007F148D
:10165F00120C8A1211D812193F1215A87F647E003E
:10166F001219671219857E007F007D007BFE7A00BC
:10167F007914120DFAE47812F208F21219B5EF602C
:0F168F0005A2A7B38002A2A792A712062680EC9D
:1000260000000000000000000000000000000000CA
:10003600000000F80000000000000033300000005F
:1000460000100C06100C0600000000000000000066
:1000560040C07840C0784000043F04043F040400D8
:10006600007088FC08300000001820FF211E0000E8
:10007600F008F000E018000000211C031E211E00FD
:1000860000F00888700000001E2123241927211083
:1000960010160E0000000000000000000000000026
:1000A600000000E0180402000000000718204000CD
:1000B60000020418E00000000040201807000000BD
:1000C600404080F0804040000202010F0102020021
:1000D600000000F0000000000101011F0101010005
:1000E600000000000000000080B07000000000006A
:1000F60000000000000000000001010101010101F3
:100106000000000000000000003030000000000089
:10011600000000008060180400601806010000005E
:1001260000E010080810E000000F102020100F005B
:10013600001010F8000000000020203F20200000E2
:10014600007008080888700000302824222130003A
:1001560000300888884830000018202020110E0042
:100166000000C02010F8000000070424243F2400EB
:1001760000F80888880808000019212020110E00C0
:1001860000E0108888180000000F112020110E00D2
:1001960000380808C83808000000003F00000000CA
:1001A6000070880808887000001C222121221C008B
:1001B60000E010080810E0000000312222110F00B4
:1001C600000000C0C0000000000000303000000049
:1001D60000000080000000000000806000000000B9
:1001E60000008040201008000001020408102000D2
:1001F600404040404040400004040404040404001D
:1002060000081020408000000020100804020100B1
:10021600007048080808F0000000003036010000B1
:10022600C030C828E810E0000718272423140B0064
:100236000000C038E0000000203C230202273820DE
:1002460008F8888888700000203F202020110E00C2
:10025600C0300808080838000718202020100800B9
:1002660008F808080810E000203F202020100F00A2
:1002760008F88888E8081000203F2020232018006E
:1002860008F88888E8081000203F200003000000D6
:10029600C03008080838000007182020221E020077
:1002A60008F808000008F808203F210101213F2036
:1002B600000808F8080800000020203F2020000061
:1002C60000000808F8080800C08080807F00000051
:1002D60008F888C028180800203F2001263820008A
:1002E60008F8080000000000203F202020203000F1
:1002F60008F8F800F8F80800203F003F003F20000B
:1003060008F830C00008F808203F200007183F0012
:10031600E01008080810E0000F10202020100F0041
:1003260008F808080808F000203F21010101000034
:10033600E01008080810E0000F18242438504F0079
:1003460008F8888888887000203F2000030C302039
:1003560000708808080838000038202121221C0077
:10036600180808F8080818000000203F20000000C0
:1003760008F808000008F808001F202020201F00A9
:100386000878880000C83808000007380E01000009
:10039600F80800F80008F800033C0700073C0300D3
:1003A600081868808068180820302C03032C302039
:1003B6000838C800C83808000000203F20000000A8
:1003C60010080808C8380800203826212020180000
:1003D600000000FE020202000000007F40404000D4
:1003E600000C30C000000000000000010638C0000C
:1003F60000020202FE000000004040407F000000B4
:1004060000000402020204000000000000000000D8
:1004160000000000000000008080808080808080D6
:1004260000020204000000000000000000000000BE
:1004360000008080808000000019242222223F20B4
:1004460008F8008080000000003F112020110E00F7
:100456000000008080800000000E11202020110086
:10046600000000808088F800000E112020103F2038
:100476000000808080800000001F222222221300BC
:10048600008080F0888888180020203F2020000007
:100496000000808080808000006B949494936000BC
:1004A60008F8008080800000203F210000203F20C7
:1004B60000809898000000000020203F20200000C7
:1004C600000000809898000000C08080807F0000B7
:1004D60008F8000080808000203F24022D30200094
:1004E600000808F8000000000020203F202000003F
:1004F6008080808080808000203F20003F20003F59
:100506008080008080800000203F210000203F2066
:100516000000808080800000001F202020201F0017
:10052600808000808000000080FFA12020110E0046
:100536000000008080808000000E112020A0FF8037
:10054600808080008080800020203F2120000100E4
:100556000000808080808000003324242424190039
:10056600008080E0808000000000001F2020000046
:100576008080000000808000001F202020103F2087
:10058600808080000080808000010E300806010017
:1005960080800080008080800F300C030C300F00BC
:1005A60000808000808080000020312E0E312000E7
:1005B600808080000080808080818E701806010017
:1005C60000808080808080000021302C2221300035
:1005D60000000000807C020200000000003F404056
:1005E60000000000FF00000000000000FF00000007
:1005F6000002027C800000000040403F0000000036
:1006060000060101020204040000000000000000D0
:10061600000000FFFF000000183060FFFF60301888
:0518C2001218C7E4FF4D
:1018C700ED6004D2938002C293E4FEC290EF30E74A
:1018D70004D2918002C291D290EF25E0FF0EEEB4C0
:0418E70008E9D293A7
:0118EB0022DA
:10000300AC07ED24B0FFE4FD1218C7EC54F0C45460
:100013000F4410FF1218C7EC540F4401FF0218C716
:10193F00E4FCEC24B0FFE4FD1218C27F101218C7AC
:10194F00E4FB7D01E4FF1218C70BEBB480F40CEC41
:03195F00B408DFEA
:011962002262
:04139600AA07A905F4
:10139A00EB24E0FBE4FCEAD3947F4004E4FA090975
:1013AA00AF02AD01120003E4FC75F010EBA42CF5BA
:1013BA0082E435F0F583E5822426F582E58334005C
:1013CA00F583E493FF7D011218C70CECB408DAAF79
:1013DA0002E904FD120003E4FC75F010EBA42CF5FD
:1013EA0082E435F0F583E582242EF582E583340024
:0F13FA00F583E493FF7D011218C70CECB408DAF9
:0114090022C0
:10169E007868EFF208EDF208EBF208EAF208E9F2E8
:1016AE00E408F2786AE2FB08E2FA08E2F908E2F5E9
:1016BE0082758300120CB0FB60237868E2FF08E2AB
:1016CE00FD12139618E22408F2E2D394784007E450
:0D16DE00F208E22402F2786DE204F280C608
:0116EB0022DC
:1011D800D2927F647E00121967C2927F647E0012E9
:1011E8001967D292E4FD7FAE1218C27F101218C799
:1011F8007F401218C77F811218C77FCF1218C77F88
:10120800A11218C77FC81218C77FA61218C77FA8CF
:101218001218C77F3F1218C77FD31218C27FD51282
:1012280018C77F801218C77FD91218C77FF1121804
:10123800C77FDA1218C77F121218C77FDB1218C7C8
:101248007F401218C77F201218C77F021218C77F65
:101258008D1218C77F141218C77FA41218C77FA64B
:101268001218C77FAF1218C77FAF1218C712193FDD
:06127800E4FDFF0200038B
:101916007870EFF208EDF2121A317FA01218EC126D
:101926001A1B7870E2FF1218EC121A1B7871E2FF8C
:091936001218EC121A1B021A42ED
:04177400785FEFF2B9
:10177800121A317FA01218EC121A1B785FE2FF12BE
:1017880018EC121A1B121A317FA11218EC121A1B2C
:101798001217E07860EFF27F01121A27121A4278C6
:0317A80060E2FFFD
:0117AB00221B
:10154A00786DE275F014A408F2E408F2786FE2FE0E
:10155A0018E22EFF74592EF8E2FD1219167F327E18
:10156A0000121967786FE204F2E2C3940940DDE4DD
:10157A00786FF2786FE2FEC3940B501F18E22409C9
:10158A00FFEE2FFF74622EF8E2FD1219167F327EEB
:0D159A0000121967786FE204F280D87F001C
:0115A7002221
:0A130A007859EBF208EAF208E9F264
:10131400EF75F014A408F2E408F2785DE2FFC394D8
:1013240009502B18E22FFF1217747859E2FB08E2D8
:10133400FA08E2F9785DE2F582758300EF120CEFAA
:101344007F327E00121967785DE204F280CCE47883
:101354005DF2785DE2FFC3940B503618E22409FE77
:10136400EF2EFF1217747859E2FB08E2FA08E22420
:1013740009F9E43AFA785DE27C0029F9EC3AFAEFEB
:10138400120CDD7F327E00121967785DE204F28070
:01139400C197
:011395002235
:0A14E1007859EBF208EAF208E9F28C
:1014EB00E408F2785EF2E4785DF2785DE2FFC39493
:1014FB0009503A18E22FFF121774AD07785EE275A8
:10150B00F00BA4FF7859E2FB08E2FA08E22FF9EAA4
:10151B0035F0FA785DE27E0029F9EE3AFAED120C1D
:10152B00DD7F32121967785DE204F280BD785CE2F0
:0E153B002414F2785EE204F2E2C3940340A8A6
:01154900227F
:10183F0055550000000000000000000000000000EF
:10184F00FF03FDD4140117000000FF03FDD41000A7
:0D185F001C000000FF04FCD44A0200E00061
:081A3A008F993099FDC2992239
:1015FD00D2B10000000000C2B100000000EF139254
:10160D00B1EFC313FF001392B1EFC313FF00139299
:10161D00B1EFC313FF001392B1EFC313FF00139289
:10162D00B1EFC313FF001392B1EFC313FF00139279
:10163D00B1EFC313001392B100000000000000D2FF
:02164D00B122C8
:0A186C007872EBF208EAF208E9F2E4
:10187600E4FEEEC39D50197872E2FB08E2FA08E234
:10188600F98E82758300120CB0FF1215FD0E80E2F0
:01189600222F
:0A1897007864EBF208EAF208E9F2C7
:1018A100E4FEEEC39D50197864E2FB08E2FA08E217
:1018B100F98E82758300120CB0FF121A3A0E80E283
:0118C1002204
:1015A80078507C007DFE7BFF7A18793F7E007F189B
:1015B800120C8A78687C007DFE7BFF7A1879577E4A
:1015C800007F0A120C8A7BFE7A0079507D18121867
:1015D8006C7F647E001219677BFE7A0079687D0A49
:1015E80012186C7FE87E031219677BFE7A0079680F
:0515F8007D0A02186CE1
:1017AC0078597C007DFE7BFF7A1879617E007F0B77
:1017BC00120C8A7E007F287D007BFE7A0079141241
:1017CC000DFA7BFE7A0079597D0B121897E478128A
:0317DC00F208F21E
:0117DF0022E7
:10173100E4FF74162FF8E2C4540FFEEF25E02402F3
:10174100F8EEF274162FF8E2540FFEEF25E02403B1
:10175100F8EEF20FEFB404DAE4FF74022FF8E2D3EB
:101761009409E240052437F280032430F20FEFB4EC
:0217710008E886
:011773002253
:091A3100D2B5D2B4C2B5C2B42290
:071A4200C2B5D2B4D2B522F7
:0218EC00AD0746
:1018EE00E4FB7E007480A803088006CEA2E713CE28
:1018FE0013D8F8FFEDF582EF558224FF92B5D2B4DE
:07190E00C2B40BEBB408DBCF
:0119150022AF
:1017E000E4FDD2B5FCD2B430B5197E007480A804F3
:1017F000088006CEA2E713CE13D8F8FFEDFBEF4B1F
:10180000FF8002EDFFAD07C2B40CECB408D7AF0502
:0118100022B5
:0A1A2700EF24FF92B5D2B4C2B4223E
:0B1A1B00D2B5D2B4A2B5E433FFC2B4D0
:011A2600229D
:041963007F017E0082
:10196700D3EF9400EE940040147D727C00ED1D705F
:0D197700011CED4C70F7EF1F70E61E80E3C1
:011984002240
:1019B50020B20C12196330B2037F00227F01227F0F
:0219C5000022FE
:1019C70020950C1219633095037F00227F01227F37
:0219D7000022EC
:1019D90020940C1219633094037F00227F01227F27
:0219E9000022DA
:1019EB0020970C1219633097037F00227F01227F0F
:0219FB000022C8
:1019FD0020960C1219633096037F00227F01227FFF
:021A0D000022B5
:041A4D002A0020004B
:0A0E3F007859EBF208EAF208E9F234
:100E4900E47866F208F21219A0EF7803C333CE33BF
:100E5900CED8F9FFC374789FFFE49EC313EF13FF45
:100E69007859E2FB08E2FA08E2F9E4FD12169E78E5
:100E790061E2FE08E2FFD39402EE9400400AEF24F7
:100E8900FEFFEE34FFFE80047E007F007866EEF2FE
:100E990008EFF24E6003020F697864F208F2785F96
:100EA900E2FE08E2FFC39403EE9400500280047E40
:100EB900007F037864E2FC08E2FDC39FEC9E4003D7
:100EC900020FEF7863E2705D7861E2FE08E2FFED00
:100ED900B50712ECB5060EED25E02402FD7BFF7A7D
:100EE9001A794D800F786408E225E02402FD7BFF22
:100EF9007A1A794FE4FF12169E7864E2FE08E2FF3F
:100F090025E02402FDEFC4F8540FC868FFEEC4546D
:100F1900F048FE785CE2FB08E2FA08E22FF9EA3EC3
:100F2900FA7F0A802A7864E2FE08E2FF25E02402BB
:100F3900FDEFC4F8540FC868FFEEC454F048FE78BA
:100F49005CE2FB08E2FA08E22FF9EA3EFAE4FF1252
:100F5900169E7865E22401F218E23400F2020EA727
:100F69007866E2FF08E27864CFF208EFF27861E28E
:100F7900FE08E2FFD37865E29F18E29E50687BFF86
:100F89007A1A794F7D02E4FF12169E7BFF7A1A794D
:100F99004F7D04E4FF12169E7BFF7A1A794D7D0678
:100FA900E4FF12169E786608E2FF7864E2FA08E226
:100FB900FBC39F25E02402FDEBC4F8540FC868FF6A
:100FC900EAC454F048FE785CE2FB08E2FA08E22F32
:100FD900F9EA3EFA7F0A12169E7865E22401F218B0
:100FE900E23400F280877863E270237866E2FE08D3
:100FF900E2FFC37860E29FFF18E29EFED3EF9403FD
:10100900EE940040097B7F7D067F780213967BFF73
:0B1019007A1A794F7D067F7812169E30
:0110240022A9
:10128A0002164FE493A3F8E493A34003F68001F215
:10129A0008DFF48029E493A3F85407240CC8C33365
:1012AA00C4540F4420C8834004F456800146F6DF34
:1012BA00E4800B0102040810204080901A49E47E61
:1012CA00019360BCA3FF543F30E509541FFEE49329
:1012DA00A360010ECF54C025E060A840B8E493A3F0
:1012EA00FAE493A3F8E493A3C8C582C8CAC583CA1B
:1012FA00F0A3C8C582C8CAC583CADFE9DEE780BED3
:011A4C000099
:100BBA00E709F608DFFA8046E709F208DFFA803E1D
:100BCA0088828C83E709F0A3DFFA8032E309F6080A
:100BDA00DFFA8078E309F208DFFA807088828C8372
:100BEA00E309F0A3DFFA806489828A83E0A3F60826
:100BFA00DFFA805889828A83E0A3F208DFFA804C00
:100C0A0080D280FA80C680D4806980F280338010D6
:100C1A0080A680EA809A80A880DA80E280CA80333F
:100C2A0089828A83ECFAE493A3C8C582C8CCC583B7
:100C3A00CCF0A3C8C582C8CCC583CCDFE9DEE78087
:100C4A000D89828A83E493A3F608DFF9ECFAA9F006
:100C5A00EDFB2289828A83ECFAE0A3C8C582C8CC5C
:100C6A00C583CCF0A3C8C582C8CCC583CCDFEADE75
:100C7A00E880DB89828A83E493A3F208DFF980CCD7
:100C8A0088F0EF60010E4E60C388F0ED2402B404D0
:100C9A000050B9F582EB2402B4040050AF23234577
:060CAA008223900C0A7386
:100CB000BB010CE58229F582E5833AF583E02250F9
:100CC00006E92582F8E622BBFE06E92582F8E22243
:0D0CD000E58229F582E5833AF583E493225D
:100CDD00BB010689828A83F0225002F722BBFE01F6
:020CED00F322F0
:100CEF00F8BB010DE58229F582E5833AF583E8F03B
:100CFF00225006E92582C8F622BBFE05E92582C8E7
:020D0F00F222CE
:10140A007859EBF208EAF208E9F2785FEBF208EAB7
:10141A00F208E9F27859E2FB0808E2F92401F21825
:10142A00E2FA3400F2120E2670EA785BE224FFF246
:10143A0018E234FFF2785CE2FB0808E2F92401F2D0
:10144A0018E2FA3400F2120E26FF7859E2FB080875
:10145A00E2F92401F218E2FA3400F2EF120CDD701C
:0C146A00D4785FE2FB08E2FA08E2F92205
:100D1100E709F60870FA8046E709F20870FA803EA2
:100D210088828C83E709F0A370FA807EE309F608D4
:100D310070FA8076E309F20870FA806E88828C83FB
:100D4100E309F0A370FA806289828A83E0A3F6083E
:100D510070FA805689828A83E0A3F20870FA804A89
:100D610080D280FA80C680D4806580F28031801084
:100D710080A680EA809A80A880DA80E280CA8031E9
:100D810089828A83ECFAE493A3C8C582C8CCC5835F
:100D9100CCF0A3C8C582C8CCC583CC70E9800D89CD
:100DA100828A83E493A3F60870F9ECFAA9F0EDFBCB
:100DB1002289828A83ECFAE0A3C8C582C8CCC583A4
:100DC100CCF0A3C8C582C8CCC583CC70EA80DD89CC
:100DD100828A83E493A3F20870F980CE88F0ED242F
:100DE10002B4040050C4F582EB2402B4040050BAEA
:090DF1002323458223900D617358
:101476007859EBF208EAF208E9F2E47861F208F248
:10148600785F08E2FF24FFF218E2FE34FFF2EF4E27
:10149600603E785CE2FB08E2FA08E2F9120E26FFEB
:1014A6007859E2FB08E2FA08E2F9786108E2FD24DD
:1014B60001F218E2FC3400F28D828C83EF120CEFFD
:1014C600EF60BD785EE22401F218E23400F280B0EB
:0B14D6007859E2FB08E2FA08E2F92274
:1019A000E4FFFE120E26600C0FEF70010E09E970C5
:0519B000F20A80EF22A5
:100DFA00EF4E6012EF60010EEDBB010B89828A8310
:100E0A00F0A3DFFCDEFA2289F05007F709DFFCA91C
:0C0E1A00F022BBFEFCF309DFFCA9F02273
:100E2600BB010689828A83E0225002E722BBFE02CA
:090E3600E32289828A83E49322FD
:00000001FF
