:0300000002127E6B
:0C127E00787FE4F6D8FD7581A20212C54D
:101025004D454E5500504E3533322020202020208E
:1010350020202000426C7565546F6F746820202055
:10104500202000454550524F4D20202020202020B3
:101055002000504E35333200526561642020202037
:101065002020202020200057726974652020202030
:101075002020202020004361726420202020202091
:101085002020202000503250202020202020202009
:1010950020202000426C7565546F6F74680054728F
:1010A500616E7366657220446174612000504E352F
:1010B5003332202D20526561640052656164696E8A
:1010C500672E2E2E004D454E552020202020202015
:1010D50020205550004241434B2020202020202035
:1010E500444F574E002020005341564520202020D4
:1010F5002020202020202020004241434B2020207A
:1011050020202020202020202000504E3533322062
:101115002D2057726974650057726974696E672E60
:101125002E2E00504E353332202D2043617264003F
:1011350053696D756C6174696E672E2E2E00504E65
:10114500353332202D2050325000436F6E6E65636B
:1011550074696E672E2E2E00426C7565546F6F7420
:1011650068202D205444005472616E736665727256
:10117500696E672E2E2E00454550524F4D00344561
:101185004441394330340038373635343332310051
:101195003332333031303536323500333233303156
:1011A5003035363236003030303030303030303057
:1011B500000000000000000000000000000000002A
:1011C500000000000000000000000000000000001A
:0311D50000000017
:031B9700810000CA
:0C1B5400C2A77FF47E01121AACD2A722B7
:101ACA0043878075985053890F438920758BFA751F
:0B1ADA008DFAC2ABD28ED2AFD2AC228C
:0817BE0008F27B007A00798F2C
:0A17C6007873EBF208EAF208E9F28A
:1017D000E4FF7876E2FB08E2FA08E2F98F8275838B
:1017E00000120CC9FE7873E2FB08E2FA08E2F98FF6
:1017F00082758300120CC96E6002C3220FEFB40819
:02180000D1D342
:0118020022C3
:0300230002195669
:10195600C0E0C0D075D000C000C007C2AF78120882
:10196600E2FF2401F218E23400F274142FF8E5992C
:0E197600F2C298D2AFD007D000D0D0D0E0326D
:1006260078487C007D007BFF7A1179B67E007F0ECC
:10063600120C8AE47879F67800E224FC24FA500257
:100646008011121B0CEF600B7800E208F2E418F23E
:10065600121A847800E2B40A004003020A6E900679
:100666006BF82828730206890206CA02071A0209CD
:10067600CE02073D02095F02097B0209970209B310
:10068600020A21786A74FFF2087410F2087425F2DF
:1006960078087C007D007BFF7A10792A120DF678A7
:1006A600187C007D007BFF7A107939120DF67828C8
:1006B6007C007D007BFF7A107948120DF6787876FB
:1006C60003020A1B786A74FFF2087410F208745762
:1006D600F278087C007D007BFF7A10795D120DF6BA
:1006E60078187C007D007BFF7A10796C120DF67805
:1006F600287C007D007BFF7A10797B120DF6783816
:100706007C007D007BFF7A10798A120DF678787668
:1007160004020A1B786A74FFF2087410F2087499CE
:10072600F278087C007D007BFF7A1079A3120DF623
:1007360078787601020A1B786A74FFF2087410F260
:100746000874B2F27878760378727401F2E478125B
:10075600F208F21218BD78087C007D007BFF7A1043
:1007660079BF120DF678187C007D007BFF7A107930
:10077600CA120DF678287C007D007BFF7A1079DAA4
:10078600120DF67876E4F2087400F2087408F2782E
:1007960078E6FF7879E4F208EFF27879E6FF787B7D
:1007A600E4F208EFF27872E2787DF2786AE2FB080A
:1007B600E2FA08E2F9120E3FD37813E2940F18E238
:1007C600940040F4E4F208F2121B541218037876EF
:1007D60074FEF2087400F2087402F208E4F2087477
:1007E60008F27B007A0079481214FD788F7C007D30
:1007F600007B007A007948120DF6787674FFF208CD
:100806007410F20874EAF27B007A007948121491A7
:1008160078087C007D00120DF678187C007D007B40
:10082600FF7A1079ED120DF678287C007D007BFFAB
:100836007A1079FE120DF67876E4F2087400F20862
:100846007408F27878E6FF7879E4F208EFF27879BE
:10085600E6FF787BE4F208EFF27872E2787DF278D0
:100866006AE2FB08E2FA08E2F9120E3F121B0CEFED
:10087600700302090E787674FFF2087411F274831D
:100886001217BE500E78987C007D007BFF7A117996
:10089600958022787674FFF2087411F2748C121720
:1008A600BE78987C007D007BFF50067A1179A08087
:1008B600047A1179AB120DF67FFF121885788EA691
:1008C600077F327E00121AAC78737C007DFE7B00B7
:1008D6007A00798F7E007F14120C8A788EE67887EC
:1008E600F21215D1788EE6FFB402047F008003EF82
:1008F60004FF788EA6077F327E00121AAC788EE649
:10090600FD7FFF121A5B8009121B1EEF700302089F
:1009160072E47800F2786A74FFF2087410F20874D0
:1009260025F278087C007D007BFF7A10792A120D6B
:10093600F678187C007D007BFF7A107939120DF667
:1009460078287C007D007BFF7A107948120DF6E44A
:100956007872F2121A84020A6E786A74FFF20874C8
:1009660011F208740FF278087C007D007BFF7A1183
:10097600791D020A44786A74FFF2087411F2087449
:1009860028F278087C007D007BFF7A117935020A0F
:1009960044786A74FFF2087411F2087443F2780816
:1009A6007C007D007BFF7A11794F020A44786A74D5
:1009B600FFF2087411F208745DF278087C007D007D
:1009C6007BFF7A11796C8076786A74FFF20874116D
:1009D600F208747CF27B007A007957121568E47885
:1009E60056F67856E6FFC394035024EF75F00BA431
:1009F6002457F9E4FAFBC001E675F010A42408F9BF
:100A0600E4A801FCFDD001120DF678560680D378D5
:100A160056E67878F6E47872F2804D786AE2FB085A
:100A2600E2FA08E2F8AC02AD037B007A00797A12AA
:100A36000DF678087C007D007B007A007983120D24
:100A4600F678187C007D007BFF7A1079CA120DF6C5
:100A560078287C007D007BFF7A1079DA120DF67813
:100A660078760378727401F27800E224FC5003026F
:100A76000B84121B30EF600E7879E6FFD3940040AA
:100A860005EF14FF80047879E6FF7879A607121B34
:100A960042EF60117878E614FF08E6FEC39F500522
:100AA600EE04FF80047879E6FF7879EFF67876E44D
:100AB600F2087400F2087408F27878E6FD7879E4B2
:100AC600F208EDF208E4F208EFF27872E2787DF2CD
:100AD600786AE2FB08E2FA08E2F9120E3F121B1EE0
:100AE600EF60077801E218020B80121B0CEF6082A0
:100AF6007800E2146023146039146046240360030E
:100B0600020BB9786D7401F20804F20804F27879E0
:100B1600E6246DF8E278008061786D7404F20804CA
:100B2600F20804F20804F27879E6246DF8E2780017
:100B36008048786D7408F27879E6246DF8E27800DA
:100B460080387879E675F00BA42457F9E4FAFBC0EF
:100B560001087C00FDD001120DF67879E6FF7B00D6
:100B66007A00798F12130A78837C007D007B007AE5
:100B7600007998120DF678007409F2021A847876D4
:100B8600E4F2087400F2087408F27878E6FF7879DF
:100B9600E4F208EFF27879E6FF787BE4F208EFF208
:100BA6007872E2787DF2786AE2FB08E2FA08E2F906
:030BB600120E3FDD
:010BB9002219
:1016D60078567C007DFE7BFF7A1179C47E007F14EC
:1016E600120C8A1211D8121A8412162F7F647E00E9
:1016F600121AAC121ACA7E007F007D007BFE7A00A9
:101706007914120E13E47812F208F2121AFAEF6044
:0F17160005A2A7B38002A2A792A712062680EC15
:1000260000000000000000000000000000000000CA
:10003600000000F80000000000000033300000005F
:1000460000100C06100C0600000000000000000066
:1000560040C07840C0784000043F04043F040400D8
:10006600007088FC08300000001820FF211E0000E8
:10007600F008F000E018000000211C031E211E00FD
:1000860000F00888700000001E2123241927211083
:1000960010160E0000000000000000000000000026
:1000A600000000E0180402000000000718204000CD
:1000B60000020418E00000000040201807000000BD
:1000C600404080F0804040000202010F0102020021
:1000D600000000F0000000000101011F0101010005
:1000E600000000000000000080B07000000000006A
:1000F60000000000000000000001010101010101F3
:100106000000000000000000003030000000000089
:10011600000000008060180400601806010000005E
:1001260000E010080810E000000F102020100F005B
:10013600001010F8000000000020203F20200000E2
:10014600007008080888700000302824222130003A
:1001560000300888884830000018202020110E0042
:100166000000C02010F8000000070424243F2400EB
:1001760000F80888880808000019212020110E00C0
:1001860000E0108888180000000F112020110E00D2
:1001960000380808C83808000000003F00000000CA
:1001A6000070880808887000001C222121221C008B
:1001B60000E010080810E0000000312222110F00B4
:1001C600000000C0C0000000000000303000000049
:1001D60000000080000000000000806000000000B9
:1001E60000008040201008000001020408102000D2
:1001F600404040404040400004040404040404001D
:1002060000081020408000000020100804020100B1
:10021600007048080808F0000000003036010000B1
:10022600C030C828E810E0000718272423140B0064
:100236000000C038E0000000203C230202273820DE
:1002460008F8888888700000203F202020110E00C2
:10025600C0300808080838000718202020100800B9
:1002660008F808080810E000203F202020100F00A2
:1002760008F88888E8081000203F2020232018006E
:1002860008F88888E8081000203F200003000000D6
:10029600C03008080838000007182020221E020077
:1002A60008F808000008F808203F210101213F2036
:1002B600000808F8080800000020203F2020000061
:1002C60000000808F8080800C08080807F00000051
:1002D60008F888C028180800203F2001263820008A
:1002E60008F8080000000000203F202020203000F1
:1002F60008F8F800F8F80800203F003F003F20000B
:1003060008F830C00008F808203F200007183F0012
:10031600E01008080810E0000F10202020100F0041
:1003260008F808080808F000203F21010101000034
:10033600E01008080810E0000F18242438504F0079
:1003460008F8888888887000203F2000030C302039
:1003560000708808080838000038202121221C0077
:10036600180808F8080818000000203F20000000C0
:1003760008F808000008F808001F202020201F00A9
:100386000878880000C83808000007380E01000009
:10039600F80800F80008F800033C0700073C0300D3
:1003A600081868808068180820302C03032C302039
:1003B6000838C800C83808000000203F20000000A8
:1003C60010080808C8380800203826212020180000
:1003D600000000FE020202000000007F40404000D4
:1003E600000C30C000000000000000010638C0000C
:1003F60000020202FE000000004040407F000000B4
:1004060000000402020204000000000000000000D8
:1004160000000000000000008080808080808080D6
:1004260000020204000000000000000000000000BE
:1004360000008080808000000019242222223F20B4
:1004460008F8008080000000003F112020110E00F7
:100456000000008080800000000E11202020110086
:10046600000000808088F800000E112020103F2038
:100476000000808080800000001F222222221300BC
:10048600008080F0888888180020203F2020000007
:100496000000808080808000006B949494936000BC
:1004A60008F8008080800000203F210000203F20C7
:1004B60000809898000000000020203F20200000C7
:1004C600000000809898000000C08080807F0000B7
:1004D60008F8000080808000203F24022D30200094
:1004E600000808F8000000000020203F202000003F
:1004F6008080808080808000203F20003F20003F59
:100506008080008080800000203F210000203F2066
:100516000000808080800000001F202020201F0017
:10052600808000808000000080FFA12020110E0046
:100536000000008080808000000E112020A0FF8037
:10054600808080008080800020203F2120000100E4
:100556000000808080808000003324242424190039
:10056600008080E0808000000000001F2020000046
:100576008080000000808000001F202020103F2087
:10058600808080000080808000010E300806010017
:1005960080800080008080800F300C030C300F00BC
:1005A60000808000808080000020312E0E312000E7
:1005B600808080000080808080818E701806010017
:1005C60000808080808080000021302C2221300035
:1005D60000000000807C020200000000003F404056
:1005E60000000000FF00000000000000FF00000007
:1005F6000002027C800000000040403F0000000036
:1006060000060101020204040000000000000000D0
:10061600000000FFFF000000183060FFFF60301888
:051A0700121A0CE4FFBF
:101A0C00ED6004D2938002C293E4FEC290EF30E703
:101A1C0004D2918002C291D290EF25E0FF0EEEB479
:041A2C0008E9D29360
:011A30002293
:10000300AC07ED24B0FFE4FD121A0CEC54F0C45419
:100013000F4410FF121A0CEC540F4401FF021A0C88
:101A8400E4FCEC24B0FFE4FD121A077F10121A0CD8
:101A9400E4FB7D01E4FF121A0C0BEBB480F40CECB4
:031AA400B408DFA4
:011AA700221C
:04141D00AA07A9056C
:10142100EB24E0FBE4FCEAD3947F4004E4FA0909ED
:10143100AF02AD01120003E4FC75F010EBA42CF532
:1014410082E435F0F583E5822426F582E5833400D4
:10145100F583E493FF7D01121A0C0CECB408DAAFAA
:1014610002E904FD120003E4FC75F010EBA42CF575
:1014710082E435F0F583E582242EF582E58334009C
:0F148100F583E493FF7D01121A0C0CECB408DA2A
:011490002239
:101725007882EFF208EDF208EBF208EAF208E9F246
:10173500E408F27884E2FB08E2FA08E2F908E2F547
:1017450082758300120CC9FB60237882E2FF08E2F0
:10175500FD12141D18E22408F2E2D394784007E440
:0D176500F208E22402F27887E204F280C666
:011772002254
:1011D800D2927F647E00121AACC2927F647E0012A3
:1011E8001AACD292E4FD7FAE121A077F10121A0CC5
:1011F8007F40121A0C7F81121A0C7FCF121A0C7FB3
:10120800A1121A0C7FC8121A0C7FA6121A0C7FA8FA
:10121800121A0C7F3F121A0C7FD3121A077FD512AD
:101228001A0C7F80121A0C7FD9121A0C7FF1121A2D
:101238000C7FDA121A0C7F12121A0C7FDB121A0CAE
:101248007F40121A0C7F20121A0C7F02121A0C7F90
:101258008D121A0C7F14121A0C7FA4121A0C7FA676
:10126800121A0C7FAF121A0C7FAF121A0C121A84C2
:06127800E4FDFF0200038B
:101A5B00788AEFF208EDF2121B767FA0121A311280
:101A6B001B60788AE2FF121A31121B60788BE2FF3F
:091A7B00121A31121B60021B90CB
:041885007879EFF28D
:10188900121B767FA0121A31121B607879E2FF12BF
:101899001A31121B60121B767FA1121A31121B60BA
:1018A900121925787AEFF27F01121B6C121B9078BE
:0318B9007AE2FFD1
:0118BC002209
:1015D1007887E275F014A408F2E408F27889E2FE53
:1015E10018E22EFF74732EF8E2FD121A5B7F327E31
:1015F10000121AAC7889E204F2E2C3940940DDE4F6
:101601007889F27889E2FEC3940B501F18E224090D
:10161100FFEE2FFF747C2EF8E2FD121A5B7F327E03
:0D16210000121AAC7889E204F280D87F0034
:01162E002299
:0A130A007873EBF208EAF208E9F24A
:10131400EF75F014A408F2E408F27877E2FFC394BE
:1013240009502B18E22FFF1218857873E2FB08E2AC
:10133400FA08E2F97877E2F582758300EF120D0876
:101344007F327E00121AAC7877E204F280CCE47823
:1013540077F27877E2FFC3940B503618E22409FE43
:10136400EF2EFF1218857873E2FB08E2FA08E224F4
:1013740009F9E43AFA7877E27C0029F9EC3AFAEFD1
:10138400120CF67F327E00121AAC7877E204F280F7
:01139400C197
:011395002235
:0A1568007873EBF208EAF208E9F2EA
:10157200E408F27878F2E47877F27877E2FFC394BD
:1015820009503A18E22FFF121885AD077878E275F4
:10159200F00BA4FF7873E2FB08E2FA08E22FF9EA03
:1015A20035F0FA7877E27E0029F9EE3AFAED120C7C
:1015B200F67F32121AAC7877E204F280BD7876E2D6
:0E15C2002414F27878E204F2E2C3940340A805
:0115D00022F8
:1019840055550000000000000000000000000000A9
:10199400FF03FDD4140117000000FF03FDD4100061
:0D19A4001C000000FF04FCD44A0200E0001B
:081B88008F993099FDC29922EA
:10168400D2B10000000000C2B100000000EF1392CC
:10169400B1EFC313FF001392B1EFC313FF00139212
:1016A400B1EFC313FF001392B1EFC313FF00139202
:1016B400B1EFC313FF001392B1EFC313FF001392F2
:1016C400B1EFC313001392B100000000000000D278
:0216D400B12241
:0A19B100788CEBF208EAF208E9F284
:1019BB00E4FEEEC39D5019788CE2FB08E2FA08E2D4
:1019CB00F98E82758300120CC9FF1216840E80E209
:0119DB0022E9
:0A19DC00787EEBF208EAF208E9F267
:1019E600E4FEEEC39D5019787EE2FB08E2FA08E2B7
:1019F600F98E82758300120CC9FF121B880E80E2D5
:011A060022BD
:10162F00786A7C007DFE7BFF7A1979847E007F18B3
:10163F00120C8A78827C007DFE7BFF7A19799C7E62
:10164F00007F0A120C8A7BFE7A00796A7D181219C4
:10165F00B17F647E00121AAC7BFE7A0079827D0A1C
:10166F001219B17FE87E03121AAC7BFE7A007982E1
:05167F007D0A0219B113
:1018BD0078737C007DFE7BFF7A1979A67E007F0B05
:1018CD00120C8A7E007F287D007BFE7A007914122F
:1018DD000E137BFE7A0079737D0B1219DCE47812FE
:0318ED00F208F20C
:0118F00022D5
:10180300E4FF74162FF8E2C4540FFEEF25E0240220
:10181300F8EEF274162FF8E2540FFEEF25E02403DE
:10182300F8EEF20FEFB404DAE4FF74022FF8E2D318
:101833009409E240052437F280032430F20FEFB419
:0218430008E8B3
:011845002280
:091B7600D2B5D2B4C2B5C2B4224A
:071B9000C2B5D2B4D2B522A8
:021A3100AD07FF
:101A3300E4FB7E007480A803088006CEA2E713CEE1
:101A430013D8F8FFEDF582EF558224FF92B5D2B497
:071A5300C2B40BEBB408DB89
:011A5A002269
:10192500E4FDD2B5FCD2B430B5197E007480A804AC
:10193500088006CEA2E713CE13D8F8FFEDFBEF4BD8
:10194500FF8002EDFFAD07C2B40CECB408D7AF05BC
:01195500226F
:0A1B6C00EF24FF92B5D2B4C2B422F8
:0B1B6000D2B5D2B4A2B5E433FFC2B48A
:011B6B002257
:041AA8007F017E003C
:101AAC00D3EF9400EE940040147D727C00ED1D7019
:0D1ABC00011CED4C70F7EF1F70E61E80E37B
:011AC90022FA
:101AFA0020B20C121AA830B2037F00227F01227F83
:021B0A000022B7
:101B0C0020950C121AA83095037F00227F01227FAA
:021B1C000022A5
:101B1E0020940C121AA83094037F00227F01227F9A
:021B2E00002293
:101B300020970C121AA83097037F00227F01227F82
:021B4000002281
:101B420020960C121AA83096037F00227F01227F72
:021B520000226F
:041B9B002A002000FC
:0A0E3F007873EBF208EAF208E9F21A
:100E4900E47880F208F2121AE5EF7803C333CE335F
:100E5900CED8F9FFC374789FFFE49EC313EF13FF45
:100E69007873E2FB08E2FA08E2F9E4FD1217257843
:100E79007BE2FE08E2FFD39402EE9400400AEF24DD
:100E8900FEFFEE34FFFE80047E007F007880EEF2E4
:100E990008EFF24E6003020F69787EF208F2787962
:100EA900E2FE08E2FFC39403EE9400500280047E40
:100EB900007F03787EE2FC08E2FDC39FEC9E4003BD
:100EC900020FEF787DE2705D787BE2FE08E2FFEDCC
:100ED900B50712ECB5060EED25E02402FD7BFF7A7D
:100EE9001B799B800F787E08E225E02402FD7BFFB9
:100EF9007A1B799DE4FF121725787EE2FE08E2FF4E
:100F090025E02402FDEFC4F8540FC868FFEEC4546D
:100F1900F048FE7876E2FB08E2FA08E22FF9EA3EA9
:100F2900FA7F0A802A787EE2FE08E2FF25E02402A1
:100F3900FDEFC4F8540FC868FFEEC454F048FE78BA
:100F490076E2FB08E2FA08E22FF9EA3EFAE4FF1238
:100F59001725787FE22401F218E23400F2020EA785
:100F69007880E2FF08E2787ECFF208EFF2787BE240
:100F7900FE08E2FFD3787FE29F18E29E50687BFF6C
:100F89007A1B799D7D02E4FF1217257BFF7A1B7975
:100F99009D7D04E4FF1217257BFF7A1B799B7D0653
:100FA900E4FF121725788008E2FF787EE2FA08E26A
:100FB900FBC39F25E02402FDEBC4F8540FC868FF6A
:100FC900EAC454F048FE7876E2FB08E2FA08E22F18
:100FD900F9EA3EFA7F0A121725787FE22401F2180E
:100FE900E23400F28087787DE270237880E2FE089F
:100FF900E2FFC3787AE29FFF18E29EFED3EF9403E3
:10100900EE940040097B7F7D067F7802141D7BFFEB
:0B1019007A1B799D7D067F7812172559
:0110240022A9
:101773004361726420496E666F20696E204545504F
:10178300524F4D3A0D0A004361726420003A200023
:1017930049443D002C200053747564656E742049E0
:1017A300443D000D0A005472616E736665722063D6
:0B17B3006F6D706C6574652E0D0A00F0
:091B7F00D2A07FF47E01021AAC31
:04184600783CEFF209
:10184A00C2A07F017E00121AACE4783DF2783CE235
:10185A00FF30E003D38001C392A0EFC313783CF2B8
:10186A007F017E00121AAC783DE204F2E2C39408CA
:0B187A0040DBD2A07F017E00021AAC10
:1018F100783EEBF208EAF208E9F2783EE2FB08E210
:10190100FA08E2F9120CB0601A783EE2FB0808E22C
:10191100F92401F218E2FA3400F2120CB0FF1218A5
:041921004680D72203
:101396007BFF7A1779731218F1E47841F27841E20B
:1013A600FFC3940350687BFE7A00794212130A7BCE
:1013B600FF7A17798A1218F17841E22431FF121860
:1013C600467BFF7A1779901218F17BFF7A1779938B
:1013D6001218F17BFE7A0079421218F17BFF7A1718
:1013E60079971218F17BFF7A17799A1218F17BFE1A
:1013F6007A00794B1218F17BFF7A1779A61218F149
:101406007F647E00121AAC7841E204F2808F7BFF83
:071416007A1779A90218F111
:10128A000216D6E493A3F8E493A34003F68001F28E
:10129A0008DFF48029E493A3F85407240CC8C33365
:1012AA00C4540F4420C8834004F456800146F6DF34
:1012BA00E4800B0102040810204080901B97E47E12
:1012CA00019360BCA3FF543F30E509541FFEE49329
:1012DA00A360010ECF54C025E060A840B8E493A3F0
:1012EA00FAE493A3F8E493A3C8C582C8CAC583CA1B
:1012FA00F0A3C8C582C8CAC583CADFE9DEE780BED3
:011B9A00004A
:100BBA00E709F608DFFA8046E709F208DFFA803E1D
:100BCA0088828C83E709F0A3DFFA8032E309F6080A
:100BDA00DFFA8078E309F208DFFA807088828C8372
:100BEA00E309F0A3DFFA806489828A83E0A3F60826
:100BFA00DFFA805889828A83E0A3F208DFFA804C00
:100C0A0080D280FA80C680D4806980F280338010D6
:100C1A0080A680EA809A80A880DA80E280CA80333F
:100C2A0089828A83ECFAE493A3C8C582C8CCC583B7
:100C3A00CCF0A3C8C582C8CCC583CCDFE9DEE78087
:100C4A000D89828A83E493A3F608DFF9ECFAA9F006
:100C5A00EDFB2289828A83ECFAE0A3C8C582C8CC5C
:100C6A00C583CCF0A3C8C582C8CCC583CCDFEADE75
:100C7A00E880DB89828A83E493A3F208DFF980CCD7
:100C8A0088F0EF60010E4E60C388F0ED2402B404D0
:100C9A000050B9F582EB2402B4040050AF23234577
:060CAA008223900C0A7386
:100CB000BB010689828A83E0225002E722BBFE0242
:090CC000E32289828A83E4932275
:100CC900BB010CE58229F582E5833AF583E02250E0
:100CD90006E92582F8E622BBFE06E92582F8E2222A
:0D0CE900E58229F582E5833AF583E4932244
:100CF600BB010689828A83F0225002F722BBFE01DD
:020D0600F322D6
:100D0800F8BB010DE58229F582E5833AF583E8F021
:100D1800225006E92582C8F622BBFE05E92582C8CD
:020D2800F222B5
:101491007873EBF208EAF208E9F27879EBF208EAFC
:1014A100F208E9F27873E2FB0808E2F92401F21884
:1014B100E2FA3400F2120CB070EA7875E224FFF21D
:1014C10018E234FFF27876E2FB0808E2F92401F22F
:1014D10018E2FA3400F2120CB0FF7873E2FB08084C
:1014E100E2F92401F218E2FA3400F2EF120CF6707C
:0C14F100D47879E2FB08E2FA08E2F92264
:100D2A00E709F60870FA8046E709F20870FA803E89
:100D3A0088828C83E709F0A370FA807EE309F608BB
:100D4A0070FA8076E309F20870FA806E88828C83E2
:100D5A00E309F0A370FA806289828A83E0A3F60825
:100D6A0070FA805689828A83E0A3F20870FA804A70
:100D7A0080D280FA80C680D4806580F2803180106B
:100D8A0080A680EA809A80A880DA80E280CA8031D0
:100D9A0089828A83ECFAE493A3C8C582C8CCC58346
:100DAA00CCF0A3C8C582C8CCC583CC70E9800D89B4
:100DBA00828A83E493A3F60870F9ECFAA9F0EDFBB2
:100DCA002289828A83ECFAE0A3C8C582C8CCC5838B
:100DDA00CCF0A3C8C582C8CCC583CC70EA80DD89B3
:100DEA00828A83E493A3F20870F980CE88F0ED2416
:100DFA0002B4040050C4F582EB2402B4040050BAD1
:090E0A002323458223900D7A7325
:1014FD007873EBF208EAF208E9F2E4787BF208F28D
:10150D00787908E2FF24FFF218E2FE34FFF2EF4E85
:10151D00603E7876E2FB08E2FA08E2F9120CB0FFC1
:10152D007873E2FB08E2FA08E2F9787B08E2FD2421
:10153D0001F218E2FC3400F28D828C83EF120D085B
:10154D00EF60BD7878E22401F218E23400F280B049
:0B155D007873E2FB08E2FA08E2F922D2
:101AE500E4FFFE120CB0600C0FEF70010E09E970F7
:051AF500F20A80EF225F
:100E1300EF4E6012EF60010EEDBB010B89828A83F6
:100E2300F0A3DFFCDEFA2289F05007F709DFFCA903
:0C0E3300F022BBFEFCF309DFFCA9F0225A
:00000001FF
