:0300000002121CCD
:0C121C00787FE4F6D8FD7581A202126311
:100FEB004D454E5500504E353332202020202020C9
:100FFB0020202000426C7565546F6F746820202090
:10100B00202000454550524F4D20202020202020ED
:10101B002000504E35333200526561642020202071
:10102B00202020202020005772697465202020206A
:10103B0020202020200043617264202020202020CB
:10104B002020202000503250202020202020202043
:10105B0020202000426C7565546F6F7468005472C9
:10106B00616E7366657220446174612000504E3569
:10107B003332202D20526561640052656164696EC4
:10108B00672E2E2E004D454E55202020202020204F
:10109B0020205550004241434B202020202020206F
:1010AB00444F574E0020200053415645202020200E
:1010BB002020202020202020004241434B202020B4
:1010CB0020202020202020202000333232303130CD
:1010DB003538303000504E353332202D2057726961
:1010EB0074650057726974696E672E2E2E00504E10
:1010FB00353332202D20436172640053696D756C5A
:10110B006174696E672E2E2E00504E353332202DB2
:10111B002050325000436F6E6E656374696E672E9C
:10112B002E2E00426C7565546F6F7468202D205401
:10113B0044005472616E7366657272696E672E2E0F
:10114B002E00454550524F4D00000000000000009E
:10115B000000000000000000000000000000000084
:0B116B00000000000000000000000079
:0319A200810000C1
:0C196800C2A77FF47E011218C0D2A72293
:1018DE0043878075985053890F438920758BFA750D
:0B18EE008DFAC2ABD28ED2AFD2AC227A
:0300230002176A57
:10176A00C0E0C0D075D000C000C007C2AF78120870
:10177A00E2FF2401F218E23400F274142FF8E5991A
:0E178A00F2C298D2AFD007D000D0D0D0E0325B
:1006260078487C007D007BFF7A1179547E007F0E2E
:10063600120C50E47879F67800E224FC24FA500291
:100646008011121920EF600B7800E208F2E418F22C
:100656001218987800E2B40A004003020A349006A1
:100666006BF82828730206890206CA02071A0209CD
:100676009402073D02092502094102095D02097932
:100686000209E7785074FFF208740FF20874EBF26F
:1006960078087C007D007BFF7A0F79F0120DA37835
:1006A600187C007D007BFF7A0F79FF120DA3782856
:1006B6007C007D007BFF7A10790E120DA378787688
:1006C600030209E1785074FFF2087410F208741DF1
:1006D600F278087C007D007BFF7A107923120DA347
:1006E60078187C007D007BFF7A107932120DA37892
:1006F600287C007D007BFF7A107941120DA37838A3
:100706007C007D007BFF7A107950120DA3787876F5
:10071600040209E1785074FFF2087410F208745F5D
:10072600F278087C007D007BFF7A107969120DA3B0
:10073600787876010209E1785074FFF2087410F2B5
:10074600087478F27878760378587401F2E47812AF
:10075600F208F212170578087C007D007BFF7A10FC
:100766007985120DA378187C007D007BFF7A1079BD
:1007760090120DA378287C007D007BFF7A1079A06B
:10078600120DA3785CE4F2087400F2087408F2789B
:1007960078E6FF785FE4F208EFF27879E6FF7861B1
:1007A600E4F208EFF27858E27863F27850E2FB0858
:1007B600E2FA08E2F9120E05D37813E2940F18E272
:1007C600940040F4E4F208F212196812168A785C72
:1007D60074FEF2087400F2087402F208E4F2087477
:1007E60008F27B007A007948121414788F7C007D19
:1007F600007B007A007948120DA3785C74FFF2083A
:100806007410F20874B0F27B007A0079481213A8CB
:1008160078087C007D00120DA378187C007D007B93
:10082600FF7A1079B3120DA378287C007D007BFF38
:100836007A1079C4120DA3785CE4F2087400F20809
:100846007408F27878E6FF785FE4F208EFF27879D8
:10085600E6FF7861E4F208EFF27858E27863F2781E
:1008660050E2FB08E2FA08E2F9120E05121920EF2F
:10087600605F78987C007D007BFF7A1079D5120D39
:10088600A37FFF1216CD788EA6077F327E00121840
:10089600C078597C007DFE7B007A00798F7E007FD0
:1008A60014120C50788EE6786DF21214E8788EE603
:1008B600FFB402047F008003EF04FF788EA6077F53
:1008C600327E001218C0788EE6FD7FFF12186F8008
:1008D60006121932EF6095E47800F2785074FFF250
:1008E60008740FF20874EBF278087C007D007BFF39
:1008F6007A0F79F0120DA378187C007D007BFF7AC1
:100906000F79FF120DA378287C007D007BFF7A10FB
:10091600790E120DA3E47858F2121898020A347868
:100926005074FFF2087410F20874E0F278087C0044
:100936007D007BFF7A1079EE020A0A785074FFF286
:10094600087410F20874F9F278087C007D007BFFC9
:100956007A117906020A0A785074FFF2087411F2C5
:10096600087414F278087C007D007BFF7A117920E8
:10097600020A0A785074FFF2087411F208742EF213
:1009860078087C007D007BFF7A11793D807678506F
:1009960074FFF2087411F208744DF27B007A007944
:1009A6005712147FE47856F67856E6FFC394035040
:1009B60024EF75F00BA42457F9E4FAFBC001E675A1
:1009C600F010A42408F9E4A801FCFDD001120DA33F
:1009D60078560680D37856E67878F6E47858F2802A
:1009E6004D7850E2FB08E2FA08E2F8AC02AD037B70
:1009F600007A00797A120DA378087C007D007B00CE
:100A06007A007983120DA378187C007D007BFF7A2B
:100A1600107990120DA378287C007D007BFF7A1058
:100A260079A0120DA37878760378587401F27800CD
:100A3600E224FC5003020B4A121944EF600E787947
:100A4600E6FFD394004005EF14FF80047879E6FFB3
:100A56007879A607121956EF60117878E614FF0820
:100A6600E6FEC39F5005EE04FF80047879E6FF7822
:100A760079EFF6785CE4F2087400F2087408F2780C
:100A860078E6FD785FE4F208EDF208E4F208EFF2AA
:100A96007858E27863F27850E2FB08E2FA08E2F965
:100AA600120E05121932EF60077801E218020B46A2
:100AB600121920EF60827800E21460231460391462
:100AC600604624036003020B7F78537401F2080426
:100AD600F20804F27879E62453F8E2780080617827
:100AE600537404F20804F20804F20804F27879E672
:100AF6002453F8E27800804878537408F27879E64F
:100B06002453F8E2780080387879E675F00BA4244F
:100B160057F9E4FAFBC001087C00FDD001120DA3D1
:100B26007879E6FF7B007A00798F1212A878837CA9
:100B3600007D007B007A007998120DA37800740975
:100B4600F2021898785CE4F2087400F2087408F26D
:100B56007878E6FF785FE4F208EFF27879E6FF78D6
:100B660061E4F208EFF27858E27863F27850E2FB3B
:090B760008E2FA08E2F9120E058A
:010B7F002253
:1015ED00783C7C007DFE7BFF7A1179627E007F1452
:1015FD00120C501211761218981215467F647E0047
:10160D001218C01218DE7E007F007D007BFE7A006E
:10161D007914120DC0E47812F208F212190EEF606F
:0F162D0005A2A7B38002A2A792A712062680ECFF
:1000260000000000000000000000000000000000CA
:10003600000000F80000000000000033300000005F
:1000460000100C06100C0600000000000000000066
:1000560040C07840C0784000043F04043F040400D8
:10006600007088FC08300000001820FF211E0000E8
:10007600F008F000E018000000211C031E211E00FD
:1000860000F00888700000001E2123241927211083
:1000960010160E0000000000000000000000000026
:1000A600000000E0180402000000000718204000CD
:1000B60000020418E00000000040201807000000BD
:1000C600404080F0804040000202010F0102020021
:1000D600000000F0000000000101011F0101010005
:1000E600000000000000000080B07000000000006A
:1000F60000000000000000000001010101010101F3
:100106000000000000000000003030000000000089
:10011600000000008060180400601806010000005E
:1001260000E010080810E000000F102020100F005B
:10013600001010F8000000000020203F20200000E2
:10014600007008080888700000302824222130003A
:1001560000300888884830000018202020110E0042
:100166000000C02010F8000000070424243F2400EB
:1001760000F80888880808000019212020110E00C0
:1001860000E0108888180000000F112020110E00D2
:1001960000380808C83808000000003F00000000CA
:1001A6000070880808887000001C222121221C008B
:1001B60000E010080810E0000000312222110F00B4
:1001C600000000C0C0000000000000303000000049
:1001D60000000080000000000000806000000000B9
:1001E60000008040201008000001020408102000D2
:1001F600404040404040400004040404040404001D
:1002060000081020408000000020100804020100B1
:10021600007048080808F0000000003036010000B1
:10022600C030C828E810E0000718272423140B0064
:100236000000C038E0000000203C230202273820DE
:1002460008F8888888700000203F202020110E00C2
:10025600C0300808080838000718202020100800B9
:1002660008F808080810E000203F202020100F00A2
:1002760008F88888E8081000203F2020232018006E
:1002860008F88888E8081000203F200003000000D6
:10029600C03008080838000007182020221E020077
:1002A60008F808000008F808203F210101213F2036
:1002B600000808F8080800000020203F2020000061
:1002C60000000808F8080800C08080807F00000051
:1002D60008F888C028180800203F2001263820008A
:1002E60008F8080000000000203F202020203000F1
:1002F60008F8F800F8F80800203F003F003F20000B
:1003060008F830C00008F808203F200007183F0012
:10031600E01008080810E0000F10202020100F0041
:1003260008F808080808F000203F21010101000034
:10033600E01008080810E0000F18242438504F0079
:1003460008F8888888887000203F2000030C302039
:1003560000708808080838000038202121221C0077
:10036600180808F8080818000000203F20000000C0
:1003760008F808000008F808001F202020201F00A9
:100386000878880000C83808000007380E01000009
:10039600F80800F80008F800033C0700073C0300D3
:1003A600081868808068180820302C03032C302039
:1003B6000838C800C83808000000203F20000000A8
:1003C60010080808C8380800203826212020180000
:1003D600000000FE020202000000007F40404000D4
:1003E600000C30C000000000000000010638C0000C
:1003F60000020202FE000000004040407F000000B4
:1004060000000402020204000000000000000000D8
:1004160000000000000000008080808080808080D6
:1004260000020204000000000000000000000000BE
:1004360000008080808000000019242222223F20B4
:1004460008F8008080000000003F112020110E00F7
:100456000000008080800000000E11202020110086
:10046600000000808088F800000E112020103F2038
:100476000000808080800000001F222222221300BC
:10048600008080F0888888180020203F2020000007
:100496000000808080808000006B949494936000BC
:1004A60008F8008080800000203F210000203F20C7
:1004B60000809898000000000020203F20200000C7
:1004C600000000809898000000C08080807F0000B7
:1004D60008F8000080808000203F24022D30200094
:1004E600000808F8000000000020203F202000003F
:1004F6008080808080808000203F20003F20003F59
:100506008080008080800000203F210000203F2066
:100516000000808080800000001F202020201F0017
:10052600808000808000000080FFA12020110E0046
:100536000000008080808000000E112020A0FF8037
:10054600808080008080800020203F2120000100E4
:100556000000808080808000003324242424190039
:10056600008080E0808000000000001F2020000046
:100576008080000000808000001F202020103F2087
:10058600808080000080808000010E300806010017
:1005960080800080008080800F300C030C300F00BC
:1005A60000808000808080000020312E0E312000E7
:1005B600808080000080808080818E701806010017
:1005C60000808080808080000021302C2221300035
:1005D60000000000807C020200000000003F404056
:1005E60000000000FF00000000000000FF00000007
:1005F6000002027C800000000040403F0000000036
:1006060000060101020204040000000000000000D0
:10061600000000FFFF000000183060FFFF60301888
:05181B00121820E4FF9B
:10182000ED6004D2938002C293E4FEC290EF30E7F1
:1018300004D2918002C291D290EF25E0FF0EEEB467
:0418400008E9D2934E
:011844002281
:10000300AC07ED24B0FFE4FD121820EC54F0C45407
:100013000F4410FF121820EC540F4401FF02182064
:10189800E4FCEC24B0FFE4FD12181B7F10121820A2
:1018A800E4FB7D01E4FF1218200BEBB480F40CEC90
:0318B800B408DF92
:0118BB00220A
:04133400AA07A90556
:10133800EB24E0FBE4FCEAD3947F4004E4FA0909D7
:10134800AF02AD01120003E4FC75F010EBA42CF51C
:1013580082E435F0F583E5822426F582E5833400BE
:10136800F583E493FF7D011218200CECB408DAAF82
:1013780002E904FD120003E4FC75F010EBA42CF55F
:1013880082E435F0F583E582242EF582E583340086
:0F139800F583E493FF7D011218200CECB408DA02
:0113A7002223
:10163C007868EFF208EDF208EBF208EAF208E9F24A
:10164C00E408F2786AE2FB08E2FA08E2F908E2F54B
:10165C0082758300120C76FB60237868E2FF08E247
:10166C00FD12133418E22408F2E2D394784007E414
:0D167C00F208E22402F2786DE204F280C66A
:01168900223E
:10117600D2927F647E001218C0C2927F647E0012F3
:1011860018C0D292E4FD7FAE12181B7F10121820F1
:101196007F401218207F811218207FCF1218207FDF
:1011A600A11218207FC81218207FA61218207FA827
:1011B6001218207F3F1218207FD312181B7FD512DA
:1011C60018207F801218207FD91218207FF112185C
:1011D600207FDA1218207F121218207FDB121820C7
:1011E6007F401218207F201218207F021218207FBD
:1011F6008D1218207F141218207FA41218207FA6A3
:101206001218207FAF1218207FAF121820121898DC
:06121600E4FDFF020003ED
:10186F007870EFF208EDF212198A7FA01218451264
:10187F0019747870E2FF1218451219747871E2FF2B
:09188F0012184512197402199B8C
:0416CD00785FEFF261
:1016D10012198A7FA0121845121974785FE2FF125D
:1016E100184512197412198A7FA11218451219741A
:1016F1001217397860EFF27F0112198012199B7865
:0317010060E2FFA4
:0117040022C2
:1014E800786DE275F014A408F2E408F2786FE2FE71
:1014F80018E22EFF74592EF8E2FD12186F7F327E23
:10150800001218C0786FE204F2E2C3940940DDE4E7
:10151800786FF2786FE2FEC3940B501F18E224092B
:10152800FFEE2FFF74622EF8E2FD12186F7F327EF5
:0D153800001218C0786FE204F280D87F0026
:011545002283
:0A12A8007859EBF208EAF208E9F2C7
:1012B200EF75F014A408F2E408F2785DE2FFC3943B
:1012C20009502B18E22FFF1216CD7859E2FB08E2E3
:1012D200FA08E2F9785DE2F582758300EF120CB547
:1012E2007F327E001218C0785DE204F280CCE4788E
:1012F2005DF2785DE2FFC3940B503618E22409FEDA
:10130200EF2EFF1216CD7859E2FB08E2FA08E2242A
:1013120009F9E43AFA785DE27C0029F9EC3AFAEF4D
:10132200120CA37F327E001218C0785DE204F280B4
:01133200C1F9
:011333002297
:0A147F007859EBF208EAF208E9F2EE
:10148900E408F2785EF2E4785DF2785DE2FFC394F5
:1014990009503A18E22FFF1216CDAD07785EE275B2
:1014A900F00BA4FF7859E2FB08E2FA08E22FF9EA07
:1014B90035F0FA785DE27E0029F9EE3AFAED120C80
:1014C900A37F321218C0785DE204F280BD785CE235
:0E14D9002414F2785EE204F2E2C3940340A809
:0114E70022E2
:101798005555000000000000000000000000000097
:1017A800FF03FDD4140117000000FF03FDD410004F
:0D17B8001C000000FF04FCD44A0200E00009
:081993008F993099FDC29922E1
:10159B00D2B10000000000C2B100000000EF1392B6
:1015AB00B1EFC313FF001392B1EFC313FF001392FC
:1015BB00B1EFC313FF001392B1EFC313FF001392EC
:1015CB00B1EFC313FF001392B1EFC313FF001392DC
:1015DB00B1EFC313001392B100000000000000D262
:0215EB00B1222B
:0A17C5007872EBF208EAF208E9F28C
:1017CF00E4FEEEC39D50197872E2FB08E2FA08E2DC
:1017DF00F98E82758300120C76FF12159B0E80E234
:0117EF0022D7
:0A17F0007864EBF208EAF208E9F26F
:1017FA00E4FEEEC39D50197864E2FB08E2FA08E2BF
:10180A00F98E82758300120C76FF1219930E80E20C
:01181A0022AB
:1015460078507C007DFE7BFF7A1779987E007F18A5
:10155600120C5078687C007DFE7BFF7A1779B07E8E
:10156600007F0A120C507BFE7A0079507D18121704
:10157600C57F647E001218C07BFE7A0079687D0AFA
:101586001217C57FE87E031218C07BFE7A007968C1
:051596007D0A0217C5EB
:1017050078597C007DFE7BFF7A1779BA7E007F0BC6
:10171500120C507E007F287D007BFE7A0079141222
:101725000DC07BFE7A0079597D0B1217F0E4781213
:03173500F208F2C5
:01173800228E
:10168A00E4FF74162FF8E2C4540FFEEF25E024029B
:10169A00F8EEF274162FF8E2540FFEEF25E0240359
:1016AA00F8EEF20FEFB404DAE4FF74022FF8E2D393
:1016BA009409E240052437F280032430F20FEFB494
:0216CA0008E82E
:0116CC0022FB
:09198A00D2B5D2B4C2B5C2B42238
:07199B00C2B5D2B4D2B5229F
:02184500AD07ED
:10184700E4FB7E007480A803088006CEA2E713CECF
:1018570013D8F8FFEDF582EF558224FF92B5D2B485
:07186700C2B40BEBB408DB77
:01186E002257
:10173900E4FDD2B5FCD2B430B5197E007480A8049A
:10174900088006CEA2E713CE13D8F8FFEDFBEF4BC6
:10175900FF8002EDFFAD07C2B40CECB408D7AF05AA
:01176900225D
:0A198000EF24FF92B5D2B4C2B422E6
:0B197400D2B5D2B4A2B5E433FFC2B478
:01197F002245
:0418BC007F017E002A
:1018C000D3EF9400EE940040147D727C00ED1D7007
:0D18D000011CED4C70F7EF1F70E61E80E369
:0118DD0022E8
:10190E0020B20C1218BC30B2037F00227F01227F5E
:02191E000022A5
:1019200020950C1218BC3095037F00227F01227F86
:02193000002293
:1019320020940C1218BC3094037F00227F01227F76
:02194200002281
:1019440020970C1218BC3097037F00227F01227F5E
:0219540000226F
:1019560020960C1218BC3096037F00227F01227F4E
:0219660000225D
:0419A6002A002000F3
:0A0E05007859EBF208EAF208E9F26E
:100E0F00E47866F208F21218F9EF7803C333CE33A1
:100E1F00CED8F9FFC374789FFFE49EC313EF13FF7F
:100E2F007859E2FB08E2FA08E2F9E4FD12163C7881
:100E3F0061E2FE08E2FFD39402EE9400400AEF2431
:100E4F00FEFFEE34FFFE80047E007F007866EEF238
:100E5F0008EFF24E6003020F2F7864F208F2785F0A
:100E6F00E2FE08E2FFC39403EE9400500280047E7A
:100E7F00007F037864E2FC08E2FDC39FEC9E400311
:100E8F00020FB57863E2705D7861E2FE08E2FFED74
:100E9F00B50712ECB5060EED25E02402FD7BFF7AB7
:100EAF001979A6800F786408E225E02402FD7BFF04
:100EBF007A1979A8E4FF12163C7864E2FE08E2FF83
:100ECF0025E02402FDEFC4F8540FC868FFEEC454A8
:100EDF00F048FE785CE2FB08E2FA08E22FF9EA3EFE
:100EEF00FA7F0A802A7864E2FE08E2FF25E02402F6
:100EFF00FDEFC4F8540FC868FFEEC454F048FE78F5
:100F0F005CE2FB08E2FA08E22FF9EA3EFAE4FF128C
:100F1F00163C7865E22401F218E23400F2020E6DFD
:100F2F007866E2FF08E27864CFF208EFF27861E2C8
:100F3F00FE08E2FFD37865E29F18E29E50687BFFC0
:100F4F007A1979A87D02E4FF12163C7BFF7A197992
:100F5F00A87D04E4FF12163C7BFF7A1979A67D0663
:100F6F00E4FF12163C786608E2FF7864E2FA08E2C2
:100F7F00FBC39F25E02402FDEBC4F8540FC868FFA4
:100F8F00EAC454F048FE785CE2FB08E2FA08E22F6C
:100F9F00F9EA3EFA7F0A12163C7865E22401F2184C
:100FAF00E23400F280877863E270237866E2FE080D
:100FBF00E2FFC37860E29FFF18E29EFED3EF940337
:100FCF00EE940040097B7F7D067F780213347BFF10
:0B0FDF007A1979A87D067F7812163C75
:010FEA0022E4
:101228000215EDE493A3F8E493A34003F68001F2DA
:1012380008DFF48029E493A3F85407240CC8C333C7
:10124800C4540F4420C8834004F456800146F6DF96
:10125800E4800B01020408102040809019A2E47E6B
:10126800019360BCA3FF543F30E509541FFEE4938B
:10127800A360010ECF54C025E060A840B8E493A352
:10128800FAE493A3F8E493A3C8C582C8CAC583CA7D
:10129800F0A3C8C582C8CAC583CADFE9DEE780BE35
:0119A5000041
:100B8000E709F608DFFA8046E709F208DFFA803E57
:100B900088828C83E709F0A3DFFA8032E309F60844
:100BA000DFFA8078E309F208DFFA807088828C83AC
:100BB000E309F0A3DFFA806489828A83E0A3F60860
:100BC000DFFA805889828A83E0A3F208DFFA804C3A
:100BD00080D280FA80C680D4806980F28033801011
:100BE00080A680EA809A80A880DA80E280CA80337A
:100BF00089828A83ECFAE493A3C8C582C8CCC583F2
:100C0000CCF0A3C8C582C8CCC583CCDFE9DEE780C1
:100C10000D89828A83E493A3F608DFF9ECFAA9F040
:100C2000EDFB2289828A83ECFAE0A3C8C582C8CC96
:100C3000C583CCF0A3C8C582C8CCC583CCDFEADEAF
:100C4000E880DB89828A83E493A3F208DFF980CC11
:100C500088F0EF60010E4E60C388F0ED2402B4040A
:100C60000050B9F582EB2402B4040050AF232345B1
:060C70008223900BD073FB
:100C7600BB010CE58229F582E5833AF583E0225033
:100C860006E92582F8E622BBFE06E92582F8E2227D
:0D0C9600E58229F582E5833AF583E4932297
:100CA300BB010689828A83F0225002F722BBFE0130
:020CB300F3222A
:100CB500F8BB010DE58229F582E5833AF583E8F075
:100CC500225006E92582C8F622BBFE05E92582C821
:020CD500F22209
:1013A8007859EBF208EAF208E9F2785FEBF208EA1A
:1013B800F208E9F27859E2FB0808E2F92401F21888
:1013C800E2FA3400F2120DEC70EA785BE224FFF2E4
:1013D80018E234FFF2785CE2FB0808E2F92401F233
:1013E80018E2FA3400F2120DECFF7859E2FB080813
:1013F800E2F92401F218E2FA3400F2EF120CA370B9
:0C140800D4785FE2FB08E2FA08E2F92267
:100CD700E709F60870FA8046E709F20870FA803EDD
:100CE70088828C83E709F0A370FA807EE309F6080F
:100CF70070FA8076E309F20870FA806E88828C8336
:100D0700E309F0A370FA806289828A83E0A3F60878
:100D170070FA805689828A83E0A3F20870FA804AC3
:100D270080D280FA80C680D4806580F280318010BE
:100D370080A680EA809A80A880DA80E280CA803123
:100D470089828A83ECFAE493A3C8C582C8CCC58399
:100D5700CCF0A3C8C582C8CCC583CC70E9800D8907
:100D6700828A83E493A3F60870F9ECFAA9F0EDFB05
:100D77002289828A83ECFAE0A3C8C582C8CCC583DE
:100D8700CCF0A3C8C582C8CCC583CC70EA80DD8906
:100D9700828A83E493A3F20870F980CE88F0ED2469
:100DA70002B4040050C4F582EB2402B4040050BA24
:090DB7002323458223900D2773CC
:101414007859EBF208EAF208E9F2E47861F208F2AA
:10142400785F08E2FF24FFF218E2FE34FFF2EF4E89
:10143400603E785CE2FB08E2FA08E2F9120DECFF88
:101444007859E2FB08E2FA08E2F9786108E2FD243F
:1014540001F218E2FC3400F28D828C83EF120CB599
:10146400EF60BD785EE22401F218E23400F280B04D
:0B1474007859E2FB08E2FA08E2F922D6
:1018F900E4FFFE120DEC600C0FEF70010E09E970A8
:05190900F20A80EF224C
:100DC000EF4E6012EF60010EEDBB010B89828A834A
:100DD000F0A3DFFCDEFA2289F05007F709DFFCA957
:0C0DE000F022BBFEFCF309DFFCA9F022AE
:100DEC00BB010689828A83E0225002E722BBFE0205
:090DFC00E32289828A83E4932238
:00000001FF
