:0300000002170CD8
:0C170C00787FE4F6D8FD7581BB0217530E
:100FE3004D454E5500504E353332202020202020D1
:100FF30020202000426C7565546F6F746820202098
:10100300202000454550524F4D20202020202020F5
:101013002000504E35333200526561642020202079
:101023002020202020200057726974652020202072
:1010330020202020200043617264202020202020D3
:10104300202020200050325020202020202020204B
:1010530020202000426C7565546F6F7468005472D1
:10106300616E7366657220446174612000504E3571
:101073003332202D20526561640052656164696ECC
:10108300672E2E2E004D454E552020202020202057
:1010930020205550004241434B2020202020202077
:1010A300444F574E00202000534156452020202016
:1010B3002020202020202020004241434B202020BC
:1010C30020202020202020202000504E35333220A5
:1010D3002D2057726974650057726974696E672EA3
:1010E3002E2E00504E353332202D20436172640082
:1010F30053696D756C6174696E672E2E2E00504EA8
:10110300353332202D2050325000436F6E6E6563AD
:1011130074696E672E2E2E00426C7565546F6F7462
:1011230068202D205444004C553A53656E642020AA
:10113300202020202020004C443A52656376202052
:101143002020202020200052553A4D656E752052F4
:10115300443A4261636B0053656E64696E672E2E79
:101163002E0049443A005354553A0053656E742097
:101173004F4B00526563656976696E672E2E2E00AC
:1011830052656376204F4B00526563762054696D38
:10119300656F757400454550524F4D0034454441C9
:1011A3003943303400383736353433323100333253
:1011B3003330313035363235003332333031303538
:1011C300363236003030303030303030303000009E
:1011D300000000000000000000000000000000000C
:1011E30000000000000000000000000000000000FC
:0111F30000FB
:0322180081000042
:0C21C700C2A77FF47E0112211FD2A722C4
:10213D0043878075985053890F438920758BFA75A5
:0B214D008DFAC2ABD28ED2AFD2AC2212
:081DC30008F27B007A0079A808
:0A1DCB0078A1EBF208EAF208E9F251
:101DD500E4FF78A4E2FB08E2FA08E2F98F82758352
:101DE50000120E6DFE78A1E2FB08E2FA08E2F98F17
:101DF50082758300120E6D6E6002C3220FEFB40868
:021E0500D1D337
:011E070022B8
:03002300021FC9F0
:101FC900C0E0C0D075D000C000C007C2AF78120809
:101FD900E2FF2401F218E23400F274142FF8E599B3
:0E1FE900F2C298D2AFD007D000D0D0D0E032F4
:1000260078617C007D007BFF7A1179D27E007F0E9D
:10003600120E2EE47892F67800E224FC24FA50029E
:10004600801112217FEF600B7800E208F2E418F2CB
:100056001220F77800E2B40A00400302061290006C
:100066006BF82828730200890200CA02011A0205E9
:100076007202013D02035B0203770203930203AFA0
:100086000205C5786F74FFF208740FF20874E3F284
:1000960078217C007D007BFF7A0F79E8120F9A7831
:1000A600317C007D007BFF7A0F79F7120F9A784139
:1000B6007C007D007BFF7A107906120F9A78917684
:1000C600030205BF786F74FFF2087410F208741506
:1000D600F278217C007D007BFF7A10791B120F9A43
:1000E60078317C007D007BFF7A10792A120F9A788E
:1000F600417C007D007BFF7A107939120F9A785186
:100106007C007D007BFF7A107948120F9A789176F1
:10011600040205BF786F74FFF2087410F208745772
:10012600F278217C007D007BFF7A107961120F9AAC
:10013600789176010205BF786F74FFF2087410F2A9
:10014600087470F27891760378777401F2E4781285
:10015600F208F2121F0178217C007D007BFF7A10E5
:10016600797D120F9A78317C007D007BFF7A1079B9
:1001760088120F9A78417C007D007BFF7A1079986F
:10018600120F9A78A4E4F2087400F2087421F27847
:1001960091E6FF78A7E4F208EFF27892E6FF78A9F5
:1001A600E4F208EFF27877E278ABF2786FE2FB08D8
:1001B600E2FA08E2F91211F4D37813E2940F18E286
:1001C600940040F4E4F208F21221C7121E0878A443
:1001D60074FEF2087400F2087402F208E4F208747D
:1001E60008F27B007A007961121A6078A87C007D9B
:1001F600007B007A007961120F9A78A474FFF208E6
:100206007410F20874A8F27B007A0079611219F46E
:1002160078217C007D00120F9A78317C007D007B6E
:10022600FF7A1079AB120F9A78417C007D007BFF34
:100236007A1079BC120F9A78A4E4F2087400F208D6
:100246007421F27891E6FF78A7E4F208EFF278924B
:10025600E6FF78A9E4F208EFF27877E278ABF27875
:100266006FE2FB08E2FA08E2F91211F412217FEFBD
:10027600700302030E78A474FFF2087411F2749FDF
:10028600121DC3500E78B17C007D007BFF7A117978
:10029600B1802278A474FFF2087411F274A8121DBA
:1002A600C378B17C007D007BFF50067A1179BC8053
:1002B600047A1179C7120F9A7FFF121EC978A7A672
:1002C600077F327E0012211F78A17C007DFE7B0015
:1002D6007A0079A87E007F14120E2E78A7E678B5EC
:1002E600F2121B3478A7E6FFB402047F008003EF06
:1002F60004FF78A7A6077F327E0012211F78A7E6A3
:10030600FD7FFF1220CE8009122191EF70030202B9
:1003160072E47800F2786F74FFF208740FF20874D2
:10032600E3F278217C007D007BFF7A0F79E8120FDB
:100336009A78317C007D007BFF7A0F79F7120F9A4D
:1003460078417C007D007BFF7A107906120F9AE4D3
:100356007877020440786F74FFF2087410F208741C
:10036600CDF278217C007D007BFF7A1079DB0205D7
:10037600E8786F74FFF2087410F20874E6F27821D8
:100386007C007D007BFF7A1079F30205E8786F74B4
:10039600FFF2087411F2087401F278217C007D00E6
:0903A6007BFF7A11790D0205E8D4
:1003AF00786F74FFF2087411F208741BF278217CD5
:1003BF00007D007BFF7A11792A120F9A78317C0029
:1003CF007D007BFF7A11793A120F9A78417C007D7C
:1003DF00007BFF7A11794A120F9A7891760378771A
:1003EF007401F278A4E4F2087400F2087421F27830
:1003FF0091E6FF78A7E4F208EFF27892E6FF78A98A
:10040F00E4F208EFF27877E278ABF2786FE2FB086C
:10041F00E2FA08E2F91211F41221A3EF6009780051
:10042F00E208F2E418800A1221B5EF600B7800742D
:10043F0002F21220F702061212217FEF700302045C
:10044F00F07FFF121EC978A0EFF27F327E001221DB
:10045F001F78A0E2FF7BFE7A00797812179812209E
:10046F00F77BFF7A11795AE4FDFF121CE17BFF7ACB
:10047F001179657D02E4FF121CE17BFE7A00797829
:10048F007D027F18121CE17BFF7A1179697D04E4EC
:10049F00FF121CE17BFE7A0079817D047F20121C04
:1004AF00E17BFE7A0079781215651220F77BFF7ACF
:1004BF0011796EE4FDFF121CE17F207E0312211FD4
:1004CF0078A0E2FFB402067E007F008003EF04FFF6
:1004DF0078A0EFF2FD7FFF1220CE7F327E00122137
:1004EF001F122191EF70030203F21220F77BFF7AA4
:1004FF00117976E4FDFF121CE17BFE7A00798C7D89
:10050F00B87C0B1213DA50421220F77BFF7A117965
:10051F0083E4FDFF121CE17BFF7A1179657D02E414
:10052F00FF121CE17BFE7A00798C7D027F18121C72
:10053F00E17BFF7A1179697D04E4FF121CE17BFEF8
:10054F007A0079957D047F20800C1220F77BFF7A4B
:10055F0011798BE4FDFF121CE17F207E0312211F16
:03056F000203F292
:10057200786F74FFF2087411F2087498F27B007AB3
:10058200007970121ACBE4786FF6786FE6FFC394A5
:10059200035024EF75F00BA42470F9E4FAFBC001B8
:1005A200E675F010A42421F9E4A801FCFDD00112A3
:1005B2000F9A786F0680D3786FE67891F6E47877B1
:1005C200F2804D786FE2FB08E2FA08E2F8AC02AD85
:1005D200037B007A007993120F9A78217C007D00C8
:1005E2007B007A00799C120F9A78317C007D007B27
:1005F200FF7A107988120F9A78417C007D007BFF88
:100602007A107998120F9A7891760378777401F2BA
:100612007800E224FC50030207281221A3EF600EA7
:100622007892E6FFD394004005EF14FF800478929D
:10063200E6FF7892A6071221B5EF60117891E614D1
:10064200FF08E6FEC39F5005EE04FF80047892E6A1
:10065200FF7892EFF678A4E4F2087400F2087421AD
:10066200F27891E6FD78A7E4F208EDF208E4F208E8
:10067200EFF27877E278ABF2786FE2FB08E2FA0801
:10068200E2F91211F4122191EF60077801E21802E7
:10069200072412217FEF60827800E2146023146045
:1006A200391460462403600302075D78727401F214
:1006B2000804F20804F27892E62472F8E2780080E4
:1006C2006178727404F20804F20804F20804F27801
:1006D20092E62472F8E27800804878727408F27820
:1006E20092E62472F8E2780080387892E675F00B90
:1006F200A42470F9E4FAFBC001087C00FDD00112C9
:100702000F9A7892E6FF7B007A0079A81217987800
:100712009C7C007D007B007A0079B1120F9A7800F0
:100722007409F20220F778A4E4F2087400F2087463
:1007320021F27891E6FF78A7E4F208EFF27892E6E8
:10074200FF78A9E4F208EFF27877E278ABF2786FFB
:0B075200E2FB08E2FA08E2F91211F4E1
:01075D002279
:101C9200785B7C007DFE7BFF7A1179E07E007F1409
:101CA200120E2E1216661220F7121BEB7F647E00B4
:101CB20012211F12213D7E007F007D007BFE7A00F3
:101CC2007914120FB7E47812F208F212216DEF6064
:0F1CD20005A2A7B38002A2A792A712002680EC5A
:10075E00000000000000000000000000000000008B
:10076E00000000F800000000000000333000000020
:10077E0000100C06100C0600000000000000000027
:10078E0040C07840C0784000043F04043F04040099
:10079E00007088FC08300000001820FF211E0000A9
:1007AE00F008F000E018000000211C031E211E00BE
:1007BE0000F00888700000001E2123241927211044
:1007CE0010160E00000000000000000000000000E7
:1007DE00000000E01804020000000007182040008E
:1007EE0000020418E000000000402018070000007E
:1007FE00404080F0804040000202010F01020200E2
:10080E00000000F0000000000101011F01010100C5
:10081E00000000000000000080B07000000000002A
:10082E0000000000000000000001010101010101B3
:10083E00000000000000000000303000000000004A
:10084E00000000008060180400601806010000001F
:10085E0000E010080810E000000F102020100F001C
:10086E00001010F8000000000020203F20200000A3
:10087E0000700808088870000030282422213000FB
:10088E0000300888884830000018202020110E0003
:10089E000000C02010F8000000070424243F2400AC
:1008AE0000F80888880808000019212020110E0081
:1008BE0000E0108888180000000F112020110E0093
:1008CE0000380808C83808000000003F000000008B
:1008DE000070880808887000001C222121221C004C
:1008EE0000E010080810E0000000312222110F0075
:1008FE00000000C0C000000000000030300000000A
:10090E000000008000000000000080600000000079
:10091E000000804020100800000102040810200092
:10092E0040404040404040000404040404040400DD
:10093E000008102040800000002010080402010072
:10094E00007048080808F000000000303601000072
:10095E00C030C828E810E0000718272423140B0025
:10096E000000C038E0000000203C2302022738209F
:10097E0008F8888888700000203F202020110E0083
:10098E00C03008080808380007182020201008007A
:10099E0008F808080810E000203F202020100F0063
:1009AE0008F88888E8081000203F2020232018002F
:1009BE0008F88888E8081000203F20000300000097
:1009CE00C03008080838000007182020221E020038
:1009DE0008F808000008F808203F210101213F20F7
:1009EE00000808F8080800000020203F2020000022
:1009FE0000000808F8080800C08080807F00000012
:100A0E0008F888C028180800203F2001263820004A
:100A1E0008F8080000000000203F202020203000B1
:100A2E0008F8F800F8F80800203F003F003F2000CB
:100A3E0008F830C00008F808203F200007183F00D3
:100A4E00E01008080810E0000F10202020100F0002
:100A5E0008F808080808F000203F210101010000F5
:100A6E00E01008080810E0000F18242438504F003A
:100A7E0008F8888888887000203F2000030C3020FA
:100A8E0000708808080838000038202121221C0038
:100A9E00180808F8080818000000203F2000000081
:100AAE0008F808000008F808001F202020201F006A
:100ABE000878880000C83808000007380E010000CA
:100ACE00F80800F80008F800033C0700073C030094
:100ADE00081868808068180820302C03032C3020FA
:100AEE000838C800C83808000000203F2000000069
:100AFE0010080808C83808002038262120201800C1
:100B0E00000000FE020202000000007F4040400094
:100B1E00000C30C000000000000000010638C000CC
:100B2E0000020202FE000000004040407F00000074
:100B3E000000040202020400000000000000000099
:100B4E000000000000000000808080808080808097
:100B5E00000202040000000000000000000000007F
:100B6E0000008080808000000019242222223F2075
:100B7E0008F8008080000000003F112020110E00B8
:100B8E000000008080800000000E11202020110047
:100B9E00000000808088F800000E112020103F20F9
:100BAE000000808080800000001F2222222213007D
:100BBE00008080F0888888180020203F20200000C8
:100BCE000000808080808000006B9494949360007D
:100BDE0008F8008080800000203F210000203F2088
:100BEE0000809898000000000020203F2020000088
:100BFE00000000809898000000C08080807F000078
:100C0E0008F8000080808000203F24022D30200054
:100C1E00000808F8000000000020203F20200000FF
:100C2E008080808080808000203F20003F20003F19
:100C3E008080008080800000203F210000203F2027
:100C4E000000808080800000001F202020201F00D8
:100C5E00808000808000000080FFA12020110E0007
:100C6E000000008080808000000E112020A0FF80F8
:100C7E00808080008080800020203F2120000100A5
:100C8E0000008080808080000033242424241900FA
:100C9E00008080E0808000000000001F2020000007
:100CAE008080000000808000001F202020103F2048
:100CBE00808080000080808000010E3008060100D8
:100CCE0080800080008080800F300C030C300F007D
:100CDE0000808000808080000020312E0E312000A8
:100CEE00808080000080808080818E7018060100D8
:100CFE0000808080808080000021302C22213000F6
:100D0E0000000000807C020200000000003F404016
:100D1E0000000000FF00000000000000FF000000C7
:100D2E000002027C800000000040403F00000000F6
:100D3E000006010102020404000000000000000091
:100D4E00000000FFFF000000183060FFFF60301849
:05207A0012207FE4FFCD
:10207F00ED6004D2938002C293E4FEC290EF30E78A
:10208F0004D2918002C291D290EF25E0FF0EEEB400
:04209F0008E9D293E7
:0120A300221A
:10000300AC07ED24B0FFE4FD12207FEC54F0C454A0
:100013000F4410FF12207FEC540F4401FF02207F96
:1020F700E4FCEC24B0FFE4FD12207A7F1012207F6D
:10210700E4FB7D01E4FF12207F0BEBB480F40CECC1
:03211700B408DF2A
:01211A0022A2
:04189D00AA07A905E8
:1018A100EB24E0FBE4FCEAD3947F4004E4FA090969
:1018B100AF02AD01120003E4FC75F010EBA42CF5AE
:1018C10082E435F0F583E582245EF582E583340711
:1018D100F583E493FF7D0112207F0CECB408DAAFAD
:1018E10002E904FD120003E4FC75F010EBA42CF5F1
:1018F10082E435F0F583E5822466F582E5833407D9
:0F190100F583E493FF7D0112207F0CECB408DA2C
:0119100022B4
:101CE10078B0EFF208EDF208EBF208EAF208E9F257
:101CF100E408F278B2E2FB08E2FA08E2F908E2F558
:101D010082758300120E6DFB602378B0E2FF08E25A
:101D1100FD12189D18E22408F2E2D394784007E4FA
:0D1D2100F208E22402F278B5E204F280C676
:011D2E002292
:10166600D2927F647E0012211FC2927F647E001296
:10167600211FD292E4FD7FAE12207A7F1012207FC6
:101686007F4012207F7F8112207F7FCF12207F7FB5
:10169600A112207F7FC812207F7FA612207F7FA8FD
:1016A60012207F7F3F12207F7FD312207A7FD512B0
:1016B600207F7F8012207F7FD912207F7FF112202A
:1016C6007F7FDA12207F7F1212207F7FDB12207F3E
:1016D6007F4012207F7F2012207F7F0212207F7F93
:1016E6008D12207F7F1412207F7FA412207F7FA679
:1016F60012207F7FAF12207F7FAF12207F1220F74C
:06170600E4FDFF020003F8
:1020CE0078B8EFF208EDF21221E97FA01220A412E7
:1020DE0021D378B8E2FF1220A41221D378B9E2FFFF
:0920EE001220A41221D3022203E6
:041EC90078A7EFF215
:101ECD001221E97FA01220A41221D378A7E2FF12DC
:101EDD0020A41221D31221E97FA11220A41221D313
:101EED00121F6978A8EFF27F011221DF1222037809
:031EFD00A8E2FF59
:011F000022BE
:101B340078B5E275F014A408F2E408F278B7E2FE8E
:101B440018E22EFF74A12EF8E2FD1220CE7F327E21
:101B54000012211F78B7E204F2E2C3940940DDE4E5
:101B640078B7F278B7E2FEC3940B501F18E2240949
:101B7400FFEE2FFF74AA2EF8E2FD1220CE7F327EF4
:0D1B84000012211F78B7E204F280D87F0024
:011B91002231
:0A17980078A1EBF208EAF208E9F28A
:1017A200EF75F014A408F2E408F278A5E2FFC394FE
:1017B20009502B18E22FFF121EC978A1E2FB08E2A2
:1017C200FA08E2F978A5E2F582758300EF120EAC11
:1017D2007F327E0012211F78A5E204F280CCE478E9
:1017E200A5F278A5E2FFC3940B503618E22409FE55
:1017F200EF2EFF121EC978A1E2FB08E2FA08E224EA
:1018020009F9E43AFA78A5E27C0029F9EC3AFAEF10
:10181200120E9A7F327E0012211F78A5E204F28016
:01182200C104
:0118230022A2
:0A1ACB0078A1EBF208EAF208E9F254
:101AD500E408F278A6F2E478A5F278A5E2FFC394CB
:101AE50009503A18E22FFF121EC9AD0778A6E27514
:101AF500F00BA4FF78A1E2FB08E2FA08E22FF9EA6D
:101B050035F0FA78A5E27E0029F9EE3AFAED120EE3
:101B15009A7F3212211F78A5E204F280BD78A4E2F3
:0E1B25002414F278A6E204F2E2C3940340A86E
:011B3300228F
:101FF7005555000000000000000000000000000030
:10200700FF03FDD4140117000000FF03FDD41000E7
:0D2017001C000000FF04FCD44A0200E000A1
:0821FB008F993099FDC2992271
:101C4000D2B10000000000C2B100000000EF13920A
:101C5000B1EFC313FF001392B1EFC313FF00139250
:101C6000B1EFC313FF001392B1EFC313FF00139240
:101C7000B1EFC313FF001392B1EFC313FF00139230
:101C8000B1EFC313001392B100000000000000D2B6
:021C9000B1227F
:0A2024007891EBF208EAF208E9F205
:10202E00E4FEEEC39D50197891E2FB08E2FA08E255
:10203E00F98E82758300120E6DFF121C400E80E227
:01204E00226F
:0A204F0078ACEBF208EAF208E9F2BF
:10205900E4FEEEC39D501978ACE2FB08E2FA08E20F
:10206900F98E82758300120E6DFF1221FB0E80E23C
:012079002244
:101BEB00786F7C007DFE7BFF7A1F79F77E007F1874
:101BFB00120E2E78877C007DFE7BFF7A20790F7E7C
:101C0B00007F0A120E2E7BFE7A00796F7D18122050
:101C1B00247F647E0012211F7BFE7A0079877D0A68
:101C2B001220247FE87E0312211F7BFE7A00798726
:051C3B007D0A022024D7
:101F010078A17C007DFE7BFF7A2079197E007F0B12
:101F1100120E2E7E007F287D007BFE7A007914123E
:101F21000FB77BFE7A0079A17D0B12204FE4781266
:031F3100F208F2C1
:011F3400228A
:101E0800E4FF74162FF8E2C4540FFEEF25E0240215
:101E1800F8EEF274162FF8E2540FFEEF25E02403D3
:101E2800F8EEF20FEFB404DAE4FF74022FF8E2D30D
:101E38009409E240052437F280032430F20FEFB40E
:021E480008E8A8
:011E4A002275
:0921E900D2B5D2B4C2B5C2B422D1
:07220300C2B5D2B4D2B5222E
:0220A400AD0786
:1020A600E4FB7E007480A803088006CEA2E713CE68
:1020B60013D8F8FFEDF582EF558224FF92B5D2B41E
:0720C600C2B40BEBB408DB10
:0120CD0022F0
:101F6900E4FDD2B5FCD2B430B5197E007480A80462
:101F7900088006CEA2E713CE13D8F8FFEDFBEF4B8E
:101F8900FF8002EDFFAD07C2B40CECB408D7AF0572
:011F99002225
:0A21DF00EF24FF92B5D2B4C2B4227F
:0B21D300D2B5D2B4A2B5E433FFC2B411
:0121DE0022DE
:04211B007F017E00C2
:10211F00D3EF9400EE940040147D727C00ED1D709F
:0D212F00011CED4C70F7EF1F70E61E80E301
:01213C002280
:10216D0020B20C12211B30B2037F00227F01227F8F
:02217D0000223E
:10217F0020950C12211B3095037F00227F01227FB7
:02218F0000222C
:1021910020940C12211B3094037F00227F01227FA7
:0221A10000221A
:1021A30020970C12211B3097037F00227F01227F8F
:0221B300002208
:1021B50020960C12211B3096037F00227F01227F7F
:0221C5000022F6
:04221C002A00200074
:0A11F40078A1EBF208EAF208E9F234
:1011FE00E478AEF208F2122158EF7803C333CE33FF
:10120E00CED8F9FFC374789FFFE49EC313EF13FF8C
:10121E0078A1E2FB08E2FA08E2F9E4FD121CE1789B
:10122E00A9E2FE08E2FFD39402EE9400400AEF24F6
:10123E00FEFFEE34FFFE80047E007F0078AEEEF2FD
:10124E0008EFF24E600302131E78ACF208F278A794
:10125E00E2FE08E2FFC39403EE9400500280047E87
:10126E00007F0378ACE2FC08E2FDC39FEC9E4003D6
:10127E000213A478ABE2705D78A9E2FE08E2FFEDFE
:10128E00B50712ECB5060EED25E02402FD7BFF7AC4
:10129E0022791C800F78AC08E225E02402FD7BFF4A
:1012AE007A22791EE4FF121CE178ACE2FE08E2FF1E
:1012BE0025E02402FDEFC4F8540FC868FFEEC454B5
:1012CE00F048FE78A4E2FB08E2FA08E22FF9EA3EC3
:1012DE00FA7F0A802A78ACE2FE08E2FF25E02402BB
:1012EE00FDEFC4F8540FC868FFEEC454F048FE7802
:1012FE00A4E2FB08E2FA08E22FF9EA3EFAE4FF1252
:10130E001CE178ADE22401F218E23400F202125C24
:10131E0078AEE2FF08E278ACCFF208EFF278A9E2FD
:10132E00FE08E2FFD378ADE29F18E29E50687BFF85
:10133E007A22791E7D02E4FF121CE17BFF7A22796C
:10134E001E7D04E4FF121CE17BFF7A22791C7D06D0
:10135E00E4FF121CE178AE08E2FF78ACE2FA08E294
:10136E00FBC39F25E02402FDEBC4F8540FC868FFB1
:10137E00EAC454F048FE78A4E2FB08E2FA08E22F31
:10138E00F9EA3EFA7F0A121CE178ADE22401F21866
:10139E00E23400F2808778ABE2702378AEE2FE088A
:1013AE00E2FFC378A8E29FFF18E29EFED3EF9403FC
:1013BE00EE940040097B7F7D067F7802189D7BFFAF
:0B13CE007A22791E7D067F78121CE158
:0113D90022F1
:101E4B004361726420496E666F20696E2045455070
:101E5B00524F4D3A0D0A004361726420003A2049FB
:101E6B00443D002C205354553D000D0A0054726123
:101E7B006E7366657220636F6D706C6574652E0D85
:021E8B000A004B
:101E8D00AE89A28C9201AC8CAB8AA28D9202E589AF
:101E9D0054F04401F589C28C8F8CAF058F8AC28DA9
:101EAD00D28C308DFDC28CAF048F8CAF038F8AA284
:0B1EBD0002928DA201928CAF068F896B
:011EC80022F7
:07220A007DA07FFF021E8D85
:072211007D707FFF021E8DAE
:10191100A989A28E9201AD8DAC8BA28F9202A2AC4D
:101921009203C2ACE589540F4410F589C28E758DBE
:10193100FC758B66C28FD28EEF4E602B20A116C232
:101941008E8D8D8C8BA202928FA201928E8989A29B
:101951000392ACD322308FE0C28F758DFC758B66FC
:10196100EF1F70D41E80D1C28EAF058F8DAF048F53
:101971008BA202928FA201928EAF018F89A2039254
:02198100ACC3F5
:011983002241
:0D1D7A0078C2EBF208EAF208E9F208EDF297
:101D8700E408F208F2FFFE78C5E2FDC3EF9DEE948A
:101D970000502378C2E2FB08E2FA08E2F98F828E4C
:101DA70083120E6DFD78C7E22DF218E23400F20FB0
:0B1DB700BF00010E80D178C608E2FFDB
:011DC20022FE
:0921F200D2A07FF47E0102211F3E
:021F9A00A90795
:101F9C00A2AF9200C2AFC2A012220AE4FAE930E06A
:101FAC0003D38001C392A012220AE9C313F90AEAEF
:0C1FBC00B408EAD2A012220AA20092AFE0
:011FC80022F6
:101D2F0078C0EBF208EAF208E9F208ECF208EDF2FB
:101D3F00E408F208F278C3E2FE08E2FF08E2FC08CA
:101D4F00E2FDC39FEC9E502278C0E2FB08E2FA0846
:101D5F00E2F98D828C83120E6DFF121F9A78C6E204
:0A1D6F002401F218E23400F280CBE8
:011D79002247
:101F3500783CEBF208EAF208E9F2783CE2FB08E2C9
:101F4500FA08E2F9120E54601A783CE2FB0808E23E
:101F5500F92401F218E2FA3400F2120E54FF121FAE
:041F65009A80D72265
:061B92007BFE7DC87C0013
:0A1B980078C2EBF208EAF208E9F265
:101BA200E408F2AE04AF05121911400122A2AF926D
:101BB20000C2AF122211E4FA78C5E2FFC313F23079
:101BC200A104E24480F212220A0AEAB408EA1222CA
:101BD2000AA20092AF78C5E2FF78C2E2FB08E2FAFD
:081BE20008E2F9EF120E9AD39C
:011BEA0022D8
:0A15650078A1EBF208EAF208E9F2BF
:10156F0078BD74FEF2087400F20874A4F278BDE23C
:10157F00FB0808E2F92401F218E2FA3400F274557C
:10158F00120E9A18E2FB0808E2F92401F218E2FAA7
:10159F003400F274AA120E9A18E2FB0808E2F9243A
:1015AF0001F218E2FA3400F27401120E9A18E2FBFB
:1015BF000808E2F92401F218E2FA3400F274141266
:1015CF000E9AE4FF78A1E2FB08E2FA08E2F98F82B3
:1015DF00758300120E6DFE78BDE2FB0808E2F92458
:1015EF0001F218E2FA3400F2EE120E9A0FEFB4097C
:1015FF00D3E4FF78A1E2FB08E2FA08E22409F9E458
:10160F003AFAEF7C0029F9EC3AFA120E54FE78BD43
:10161F00E2FB0808E2F92401F218E2FA3400F2EED4
:10162F00120E9A0FEFB40BCB7BFE7A0079A67D16C4
:10163F00121D7A78BDE2FB0808E2F92401F218E2E4
:10164F00FA3400F2EF120E9A7BFE7A0079A47D191C
:06165F007C00121D2FD3D8
:011665002262
:1013DA0078A1EBF208EAF208E9F208ECF208EDF279
:1013EA00E478A7F278A4E2FE08E2FF4E7003021442
:0113FA007A78
:1013FB00D3EF94C8EE940040067E007FC880077838
:10140B00A4E2FE08E2FF78C0EEF2FC08EFF2FD7BEF
:10141B00FE7A0079A6121B9840012278A4E2FE08FE
:10142B00E2FF78C0E2FC08E2FDD39FEC9E500CC3B8
:10143B0078A5E29DFF18E29CFE80047E007F007879
:10144B00A4EEF208EFF278A7E2700B18E264557085
:10145B00920804F2808D78A6E2FF64AA6011EFB4C3
:0C146B0055047F0180027F0078A7EFF29B
:101477000213EE78A5E2700218E27002C3227A0026
:1014870079A8121B924001227A0079A9121B924077
:10149700012278A8E2B4010608E264146002C322BC
:1014A700E478AAF278AAE2FFC39414501874AB2F19
:1014B700F9E4FA7BFE7DC8FC121B9840012278AA4A
:1014C700E204F280DF7BFE7A0079BF121B944001B1
:1014D700227BFE7A0079A87D01121D7AAC077BFE7C
:1014E7007A0079A97D01121D7AEF2CFC7BFE7A0028
:1014F70079AB7D14121D7AEF2CFC78BFE26C600289
:10150700C322E478AAF278AAE2FF24ABF8E2FE78D5
:10151700A1E2FB08E2FA08E2F98F82758300EE1276
:101527000EAC78AAE204F2E2B409DBE478AAF27816
:10153700AAE2FF24B4F8E2FE78A1E2FB08E2FA0887
:10154700E22409F9E43AFAEF7C0029F9EC3AFAEED9
:0D155700120E9A78AAE204F2E2B40BD3D38C
:011564002264
:0D198400783FEBF208EAF208E9F208EDF214
:0E199100E408F27842E2FF08E2FEC39F5054E1
:10199F00783FE2FB08E2FA08E2F98E8275830012C3
:1019AF000E6DFFC4540FFE7844F2EF540F08F2EEA1
:1019BF00C3940A500718E22430FF80067844E224CB
:1019CF0037FF121F9A7845E2FFC3940A5006EF249F
:0D19DF0030FF80067845E22437FF121F9A82
:0719EC007843E204F280A140
:0119F30022D1
:101824007BFF7A1E794B121F35E47846F27846E244
:10183400FFC39403505A7BFE7A0079471217987BB2
:10184400FF7A1E7962121F357846E22431FF121F97
:101854009A7BFF7A1E7968121F357BFE7A007947DE
:101864007D091219847BFF7A1E796E121F357BFE67
:101874007A0079507D0B1219847BFF7A1E797512D8
:101884001F357F327E0012211F7846E204F2809DCC
:091894007BFF7A1E7978021F35F2
:10171800021C92E493A3F8E493A34003F68001F239
:1017280008DFF48029E493A3F85407240CC8C333D2
:10173800C4540F4420C8834004F456800146F6DFA1
:10174800E4800B0102040810204080902218E47EF7
:10175800019360BCA3FF543F30E509541FFEE49396
:10176800A360010ECF54C025E060A840B8E493A35D
:10177800FAE493A3F8E493A3C8C582C8CAC583CA88
:10178800F0A3C8C582C8CAC583CADFE9DEE780BE40
:01221B0000C2
:100D5E00E709F608DFFA8046E709F208DFFA803E77
:100D6E0088828C83E709F0A3DFFA8032E309F60864
:100D7E00DFFA8078E309F208DFFA807088828C83CC
:100D8E00E309F0A3DFFA806489828A83E0A3F60880
:100D9E00DFFA805889828A83E0A3F208DFFA804C5A
:100DAE0080D280FA80C680D4806980F28033801031
:100DBE0080A680EA809A80A880DA80E280CA80339A
:100DCE0089828A83ECFAE493A3C8C582C8CCC58312
:100DDE00CCF0A3C8C582C8CCC583CCDFE9DEE780E2
:100DEE000D89828A83E493A3F608DFF9ECFAA9F061
:100DFE00EDFB2289828A83ECFAE0A3C8C582C8CCB7
:100E0E00C583CCF0A3C8C582C8CCC583CCDFEADECF
:100E1E00E880DB89828A83E493A3F208DFF980CC31
:100E2E0088F0EF60010E4E60C388F0ED2402B4042A
:100E3E000050B9F582EB2402B4040050AF232345D1
:060E4E008223900DAE733B
:100E5400BB010689828A83E0225002E722BBFE029C
:090E6400E32289828A83E49322CF
:100E6D00BB010CE58229F582E5833AF583E022503A
:100E7D0006E92582F8E622BBFE06E92582F8E22284
:0D0E8D00E58229F582E5833AF583E493229E
:100E9A00BB010689828A83F0225002F722BBFE0137
:020EAA00F32231
:100EAC00F8BB010DE58229F582E5833AF583E8F07C
:100EBC00225006E92582C8F622BBFE05E92582C828
:020ECC00F22210
:1019F40078A1EBF208EAF208E9F278A7EBF208EA38
:101A0400F208E9F278A1E2FB0808E2F92401F218ED
:101A1400E2FA3400F2120E5470EA78A3E224FFF2E0
:101A240018E234FFF278A4E2FB0808E2F92401F298
:101A340018E2FA3400F2120E54FF78A1E2FB08080F
:101A4400E2F92401F218E2FA3400F2EF120E9A706D
:0C1A5400D478A7E2FB08E2FA08E2F922CD
:100ECE00E709F60870FA8046E709F20870FA803EE4
:100EDE0088828C83E709F0A370FA807EE309F60816
:100EEE0070FA8076E309F20870FA806E88828C833D
:100EFE00E309F0A370FA806289828A83E0A3F60880
:100F0E0070FA805689828A83E0A3F20870FA804ACA
:100F1E0080D280FA80C680D4806580F280318010C5
:100F2E0080A680EA809A80A880DA80E280CA80312A
:100F3E0089828A83ECFAE493A3C8C582C8CCC583A0
:100F4E00CCF0A3C8C582C8CCC583CC70E9800D890E
:100F5E00828A83E493A3F60870F9ECFAA9F0EDFB0C
:100F6E002289828A83ECFAE0A3C8C582C8CCC583E5
:100F7E00CCF0A3C8C582C8CCC583CC70EA80DD890D
:100F8E00828A83E493A3F20870F980CE88F0ED2470
:100F9E0002B4040050C4F582EB2402B4040050BA2B
:090FAE002323458223900F1E73DA
:101A600078A1EBF208EAF208E9F2E478A9F208F2C8
:101A700078A708E2FF24FFF218E2FE34FFF2EF4EEF
:101A8000603E78A4E2FB08E2FA08E2F9120E54FF85
:101A900078A1E2FB08E2FA08E2F978A908E2FD245D
:101AA00001F218E2FC3400F28D828C83EF120EAC4E
:101AB000EF60BD78A6E22401F218E23400F280B0B3
:0B1AC00078A1E2FB08E2FA08E2F9223C
:10215800E4FFFE120E54600C0FEF70010E09E970D7
:05216800F20A80EF22E5
:100FB700EF4E6012EF60010EEDBB010B89828A8351
:100FC700F0A3DFFCDEFA2289F05007F709DFFCA95E
:0C0FD700F022BBFEFCF309DFFCA9F022B5
:00000001FF
